:1000000000800020AD0500001D3D00001D3D0000EA
:100010001D3D00001D3D00001D3D00001D3D000078
:100020001D3D00001D3D00001D3D00001D3D000068
:100030001D3D00001D3D00001D3D00001D3D000058
:100040001D3D00001D3D00001D3D00001D3D000048
:100050001D3D00001D3D00001D3D00001D3D000038
:100060001D3D00001D3D00001D3D00001D3D000028
:100070001D3D00001D3D00001D3D00001D3D000018
:100080001D3D00001D3D00001D3D00001D3D000008
:100090001D3D00001D3D00001D3D00001D3D0000F8
:1000A0001D3D00001D3D00001D3D00001D3D0000E8
:1000B0001D3D00001D3D00001D3D00001D3D0000D8
:1000C00080B51448144B21E05C689968DD688C4267
:1000D0000CD0002205E0A6180832D6E9008941E9D3
:1000E00002898C460831AA42F5D101E004EB050CE7
:1000F0001C696146002204E008320026002741E91D
:1001000002670831A242F7D1143301380028DBD14D
:1001100003F0ECFD01000000843E000048F21813DB
:10012000C1F6FF731A780AB901201870704700BF32
:1001300048F20010C1F6FF7008B503682BB140F219
:100140000003C0F2000303B1984708BD80B500AFBB
:100150004FF0030000F0BAFA4FF0010000F042FB4C
:100160004FF0050000F0B2FA4FF0000000F03AFB4B
:100170004FF0030000F0AAFA80BD00BF80B500AFC9
:100180004FF0010000F02EFB4FF0030000F09EFA4C
:100190004FF0010000F004FB4FF0320000F096FA3F
:1001A00080BD00BF80B500AF4FF0000000F0F8FA4E
:1001B0004FF0030000F08AFA4FF0000000F012FB4D
:1001C0004FF0050000F082FA80BD00BF80B586B018
:1001D00000AF02460B46FA71BB71FFF7E3FF4FF029
:1001E0000703FB6011E0FA79FB6842FA03F303F0BE
:1001F00001033B613B69DBB2184600F0D1FAFFF71F
:10020000A5FFFB6803F1FF33FB60FB68002BEADA14
:100210004FF0000000F0C4FAFFF798FF4FF007031B
:10022000FB6011E0BA79FB6842FA03F303F00103C3
:100230007B617B69DBB2184600F0B2FAFFF786FFFC
:10024000FB6803F1FF33FB60FB68002BEADA4FF039
:10025000000000F0A5FAFFF779FF07F11807BD4687
:1002600080BD00BF80B584B000AF13460246FA716E
:100270000A46BA717B71FA79BB7910461946FFF7C5
:10028000A5FF4FF00703BB6011E07A79BB6842FA23
:1002900003F303F00103FB60FB68DBB2184600F0D8
:1002A0007FFAFFF753FFBB6803F1FF33BB60BB6806
:1002B000002BEADA4FF0000000F072FAFFF746FF79
:1002C000FFF75CFF07F11007BD4680BD80B500AFAA
:1002D0004FF060004FF012014FF01002FFF7C2FF25
:1002E0004FF060004FF011014FF07F02FFF7BAFFAF
:1002F0004FF060004FF032014FF0C002FFF7B2FF45
:100300004FF060004FF015014FF02002FFF7AAFFF9
:100310004FF060004FF080014FF01102FFF7A2FF95
:100320004FF060004FF009014FF00402FFF79AFF11
:1003300080BD00BF80B500AF4FF0010003F07CF836
:100340004FF0000000F0D4FD4FF0010001F0A8F8DC
:100350000346012BF8D14FF0010048F27821C1F695
:10036000FF714FF0400201F0EDF84FF0010001F095
:1003700097F80346012BF8D14FF001001B494FF0CD
:10038000400201F0DFF84FF0010001F089F8034668
:10039000012BF8D14FF0010015494FF0400201F058
:1003A000D1F84FF0010001F07BF80346012BF8D1A2
:1003B0004FF001000F494FF0400201F0C3F84FF039
:1003C000010001F06DF80346012BF8D14FF0010058
:1003D00009494FF0400201F0B5F84FF0010000F07C
:1003E00087FD4FF0000003F027F880BDB882FF1FA3
:1003F000F882FF1F3883FF1F7883FF1F98B500AF77
:1004000048F22213C1F6FF731B881C4600F05CFC07
:1004100003461A4648F27823C1F6FF731A5548F28C
:100420002213C1F6FF731B8803F101039AB248F24D
:100430002213C1F6FF731A8098BD00BF80B500AFCC
:1004400003F01CF803466FEA0303DBB2184602F020
:10045000F3FFFFF76FFF80BD80B400AF48F22213B7
:10046000C1F6FF734FF000021A80BD4680BC704792
:1004700080B500AF00F07CFC00F02EFD00F0F6FD32
:1004800000F0CAFCFFF756FF80BD00BF80B500AF8B
:100490004FF0010000F02CFD00F0B2FC80BD00BF69
:1004A00080B500AF00F09EFA4FF00C0000F0B0FAFB
:1004B0004FF0000000F0FCF94FF0010000F01AFAD4
:1004C0004FF0000000F0B0F94FF0000000F0CEF95E
:1004D00040F28D40C0F2000000F02CFD40F2FD30F3
:1004E000C0F2000000F0FCFB40F23D40C0F2000012
:1004F00000F04AFC40F25940C0F2000000F0A4FCB9
:1005000040F27140C0F2000000F068FD4FF00000C2
:1005100000F062FC4FF0010000F0BEFC4FF0020062
:1005200000F006FC00F024FC00F076FC00F0D4FCA7
:1005300000F09CFDFFF7CAFE62B64FF000004FF0DE
:10054000000100F09FFD00F09FFF0346002BFAD052
:100550004FF0020001F0EEF84FF0020000F0A0FFB3
:100560000346012BF8D14FF0020000F0B3FF034621
:10057000DAB248F23213C1F6FF731A7048F232133E
:10058000C1F6FF731B784FF0020048F27821C1F6E4
:10059000FF711A4601F082F84FF0010000F0A8FC4C
:1005A00000F046FCFFF7C6FEFEE700BF054B1C78D7
:1005B00044F001041C70044B1A78D2B2034B1A7039
:1005C000FFF77EFDE8460040FA460040BC7600405A
:1005D00080B582B000AF4EF60C53CEF2000340F26D
:1005E0000042C0F2FA521A604EF61453CEF20003E3
:1005F0004EF61452CEF20002126842F400721A60F3
:100600004FF000037B6014E07A687B684FEA830157
:1006100040F20003C0F200030B441B68194648F285
:100620000003C1F6FF7343F822107B6803F1010356
:100630007B607B682F2BE7D947F2BC63C4F20003D1
:100640001B78DAB248F24243C1F6FF731A704EF6D5
:100650000853CEF2000348F20002C1F6FF721A609E
:1006600003F056F807F10807BD4680BD80B483B09B
:1006700000AF0346FB7101BE07F10C07BD4680BC0D
:10068000704700BF80B582B000AF78600BE048F2E1
:100690001013C1F6FF731B68184603F0A9F97B68B5
:1006A000A3F500437B607B68B3F5004FEFD848F2B9
:1006B0000813C1F6FF731B687A6802FB03F3184640
:1006C00003F096F907F10807BD4680BD80B582B0FA
:1006D00000AF0346FB80FA8848F20C13C1F6FF73A3
:1006E0001B7803FB02F3184603F082F907F10807B1
:1006F000BD4680BD80B584B000AF03463960FB7154
:100700004EF60853CEF200031B68FB60FB791F2BEB
:1007100003D94FF00000FFF7A9FFFB7903F01F0397
:1007200003F110034FEA8302FB6813441B68BB60AC
:10073000FB7903F01F0303F110034FEA8302FB6808
:1007400013443A681A60BB68184607F11007BD46A3
:1007500080BD00BF80B582B000AF02460B46FA7183
:10076000BB71BB79072B03D94FF00000FFF77EFF69
:10077000FB791F2B03D94FF00000FFF777FFFB79C0
:1007800003F01F0303F1604303F56443BA794FEAB2
:100790004212D2B21A7007F10807BD4680BD00BFF1
:1007A00080B485B000AF0346FB7145F2C013C4F2BC
:1007B00000031B78DBB223F02003FB7345F2C01368
:1007C000C4F20003FA794FEA4212D2B202F02002D8
:1007D000F97B42EA0102D2B21A7007F11407BD4652
:1007E00080BC704780B485B000AF0346FB7145F212
:1007F000C013C4F200031B78DBB223F01003FB73B9
:1008000045F2C013C4F20003FA794FEA0212D2B2E1
:1008100002F01002F97B42EA0102D2B21A7007F12B
:100820001407BD4680BC704780B485B000AF034656
:10083000FB7145F23013C4F200031B78DBB223F0E6
:100840002003FB7345F23013C4F20003FA794FEA38
:100850004212D2B202F02002F97B42EA0102D2B285
:100860001A7007F11407BD4680BC704780B485B08C
:1008700000AF0346FB7145F23013C4F200031B784E
:10088000DBB223F04003FB7345F23013C4F20003E4
:10089000FA794FEA8212D2B202F04002F97B42EAC0
:1008A0000102D2B21A7007F11407BD4680BC70472E
:1008B00080B485B000AF0346FB7145F23013C4F23B
:1008C00000031B78DBB223F00803FB7345F23013FF
:1008D000C4F20003FA794FEAC202D2B202F008026F
:1008E000F97B42EA0102D2B21A7007F11407BD4641
:1008F00080BC704780B485B000AF0346FB7145F201
:100900003013C4F200031B78DBB223F01003FB7337
:1009100045F23013C4F20003FA794FEA0212D2B260
:1009200002F01002F97B42EA0102D2B21A7007F11A
:100930001407BD4680BC704780B500AF4FF028005B
:10094000FFF7A0FE4FF0030000F078F94FF005002C
:10095000FFF798FE4FF0030000F070F94FF00F0022
:10096000FFF790FE4FF0030000F068F94FF0010030
:10097000FFF788FE4FF0020000F060F94FF005002D
:10098000FFF780FE4FF0060000F042F84FF00E0037
:1009900000F03EF84FF02C0000F03AF84FF008005D
:1009A00000F036F84FF0010000F032F84FF00C0084
:1009B00000F02EF84FF0030000F02AF84FF0050089
:1009C000FFF760FE80BD00BF80B500AF4FF00C00A8
:1009D00000F01EF848F22813C1F6FF734FF0010231
:1009E0001A7080BD80B500AF48F22913C1F6FF73BD
:1009F0001B78002B08D1FFF79FFF48F22913C1F69F
:100A0000FF734FF001021A70FFF7DEFF80BD00BFD9
:100A100080B584B000AF0346FB7100F015F8FB7998
:100A20004FEA1313FB73FB7B184600F007F9FB79C1
:100A300003F00F03FB73FB7B184600F0FFF807F190
:100A40001007BD4680BD00BF80B582B000AF45F243
:100A50002013C4F2000345F22012C4F200021278FF
:100A6000D2B202F080021A7045F22213C4F20003DF
:100A70001B78DBB223F00F03FB7145F22213C4F2A3
:100A80000003FA7942F00F02D2B21A7045F2231332
:100A9000C4F200031B78DBB223F00F03FB7145F2B5
:100AA0002313C4F20003FA791A7045F22413C4F236
:100AB00000031B78DBB223F00F03FB7145F2241314
:100AC000C4F20003FA791A7045F22013C4F200034D
:100AD00045F22012C4F200021278D2B202F0DF0214
:100AE0001A7045F22013C4F2000345F22012C4F23A
:100AF00000021278D2B242F04002D2B21A704FF025
:100B00000000FFF7E3FD45F22013C4F2000345F2B5
:100B10002012C4F200021278D2B242F01002D2B215
:100B20001A704FF00100FFF7D1FD45F22113C4F216
:100B300000031B78FB7145F22013C4F2000345F259
:100B40002012C4F200021278D2B202F0EF021A7040
:100B5000FB7903F00803FB7145F22013C4F2000394
:100B600045F22012C4F200021278D2B242F0100212
:100B7000D2B21A704FF00100FFF7A8FD45F2201322
:100B8000C4F2000345F22012C4F200021278D2B27D
:100B900002F0EF021A70FB79002BB0D145F220135E
:100BA000C4F2000345F22012C4F200021278D2B25D
:100BB00002F0BF021A7045F22013C4F2000345F29E
:100BC0002012C4F200021278D2B202F080021A702F
:100BD00045F22213C4F2000345F22212C4F20002CD
:100BE0001278D2B202F0F0021A7045F22313C4F266
:100BF00000031B78DBB223F00F03FB7145F22313D4
:100C0000C4F20003FA7942F00F02D2B21A7045F230
:100C10002413C4F200031B78DBB223F00F03FB7133
:100C200045F22413C4F20003FA7942F00F02D2B263
:100C30001A7007F10807BD4680BD00BF80B582B0BD
:100C400000AF0346FB7145F22013C4F2000345F2E6
:100C50002012C4F200021278D2B202F09F021A707F
:100C600045F22013C4F2000345F22012C4F2000240
:100C70001278D2B202F0F0021A7045F22013C4F2D8
:100C8000000345F22012C4F200021278D1B2FA79C0
:100C900041EA0202D2B242F01002D2B21A704FF010
:100CA0000100FFF713FD45F22013C4F2000345F2E3
:100CB0002012C4F200021278D2B202F0EF021A70CF
:100CC00007F10807BD4680BD80B400AF45F241136F
:100CD000C4F200031B78DBB21846BD4680BC7047E7
:100CE00080B582B000AF786000F042F8786800F01C
:100CF0000BF84FF0070000F01BF800F02DF807F19B
:100D00000807BD4680BD00BF80B485B000AF7860E5
:100D10004EF60853CEF200031B68FB60FB6803F13C
:100D200050037A681A6007F11407BD4680BC70470B
:100D300080B483B000AF0346FB714EF20443CEF2A1
:100D40000003FA794FEA4212D2B21A7007F10C0787
:100D5000BD4680BC704700BF80B400AF4EF20013A8
:100D6000CEF200034FF010021A60BD4680BC7047FF
:100D700080B400AF4EF28013CEF200034FF01002A9
:100D80001A60BD4680BC704780B582B000AF786005
:100D900000F042F8786800F00BF84FF0070000F020
:100DA0001BF800F02DF807F10807BD4680BD00BF15
:100DB00080B485B000AF78604EF60853CEF20003E1
:100DC0001B68FB60FB6803F154037A681A6007F143
:100DD0001407BD4680BC704780B483B000AF0346A3
:100DE000FB714EF20543CEF20003FA794FEA42124C
:100DF000D2B21A7007F10C07BD4680BC704700BF25
:100E000080B400AF4EF20013CEF200034FF0200288
:100E10001A60BD4680BC704780B400AF4EF28013AC
:100E2000CEF200034FF020021A60BD4680BC70472E
:100E300080B400AF4EF28023CEF200034FF02002C8
:100E40001A60BD4680BC704780B582B000AF786044
:100E500000F042F8786800F00BF84FF0070000F05F
:100E60001BF800F02DF807F10807BD4680BD00BF54
:100E700080B485B000AF78604EF60853CEF2000320
:100E80001B68FB60FB6803F148037A681A6007F18E
:100E90001407BD4680BC704780B483B000AF0346E2
:100EA000FB714EF20243CEF20003FA794FEA42128E
:100EB000D2B21A7007F10C07BD4680BC704700BF64
:100EC00080B400AF4EF20013CEF200034FF00402E4
:100ED0001A60BD4680BC704780B400AF4EF28013EC
:100EE000CEF200034FF004021A60BD4680BC70478A
:100EF00080B485B000AF0346FB7145F26013C4F2C5
:100F000000031B78DBB223F00403FB7345F260138C
:100F1000C4F20003FA794FEA8202D2B202F004026C
:100F2000F97B42EA0102D2B21A7007F11407BD46FA
:100F300080BC704780B582B000AF786000F042F8A6
:100F4000786800F00BF84FF0070000F01BF800F095
:100F50002DF807F10807BD4680BD00BF80B485B0FD
:100F600000AF78604EF60853CEF200031B68FB60BA
:100F7000FB6803F158037A681A6007F11407BD464D
:100F800080BC704780B483B000AF0346FB714EF263
:100F90000643CEF20003FA794FEA4212D2B21A7037
:100FA00007F10C07BD4680BC704700BF80B400AF9E
:100FB0004EF20013CEF200034FF040021A60BD461D
:100FC00080BC704780B400AF4EF28013CEF20003B5
:100FD0004FF040021A60BD4680BC704780B582B0B9
:100FE00000AF786000F042F8786800F00BF84FF03E
:100FF000070000F01BF800F02DF807F10807BD46C8
:1010000080BD00BF80B485B000AF78604EF6085355
:10101000CEF200031B68FB60FB6803F14C037A68A7
:101020001A6007F11407BD4680BC704780B483B0D6
:1010300000AF0346FB714EF20343CEF20003FA7990
:101040004FEA4212D2B21A7007F10C07BD4680BCBB
:10105000704700BF80B400AF4EF20013CEF2000321
:101060004FF008021A60BD4680BC704780B400AFE4
:101070004EF28013CEF200034FF008021A60BD4614
:1010800080BC704780B582B000AF02460B46FA7153
:10109000BB7148F22A13C1F6FF731B78002B08D1ED
:1010A00000F012F848F22A13C1F6FF734FF0010264
:1010B0001A70FA79BB791046194600F00DF907F15C
:1010C0000807BD4680BD00BF80B582B000AF02F00A
:1010D00097FC0346FB7144F2A533C4F2000344F2CB
:1010E000A532C4F200021278D2B242F00102D2B2AA
:1010F0001A7044F2B533C4F2000344F2B532C4F2BC
:1011000000021278D2B242F00102D2B21A7046F254
:101110009D03C4F200034FF001021A7046F2090366
:10112000C4F200034FF002021A7046F21003C4F238
:10113000000346F21002C4F200021278D2B202F0AA
:101140007F021A704FF00000FFF7C0FA44F29433A8
:10115000C4F2000344F29432C4F200021278D2B214
:1011600002F0F9021A7046F21203C4F2000346F2CA
:101170001202C4F200021278D2B202F0DF021A7038
:1011800044F29433C4F2000344F29432C4F20002F5
:101190001278D2B242F00102D2B21A704FF00100BE
:1011A000FFF794FA4FF02800FFF790FA45F2F81392
:1011B000C4F2000345F2F812C4F200021278D2B26F
:1011C00002F07F021A7045F2F813C4F2000345F2F0
:1011D000F812C4F200021278D2B202F0BF021A7002
:1011E00044F29433C4F2000344F29432C4F2000295
:1011F0001278D2B242F00202D2B21A704FF002005C
:10120000FFF764FA44F29433C4F2000344F29432D8
:10121000C4F200021278D2B242F00402D2B21A70C2
:1012200046F28403C4F200034FF000021A7046F243
:101230008503C4F200034FF000021A70FB791846D0
:1012400002F0E2FB4FF0170042F26101C0F2000130
:10125000FFF750FA4FF017004FF00701FFF77AFA47
:101260004FF0150042F25501C0F20001FFF742FABB
:101270004FF015004FF00701FFF76CFA4FF0180020
:1012800041F2AD71C0F20001FFF734FA4FF01800DF
:101290004FF00701FFF75EFA4FF0000041F675715D
:1012A000C0F20001FFF726FA4FF000004FF00701EF
:1012B000FFF750FA4FF0010041F6E571C0F200016E
:1012C000FFF718FA4FF001004FF00701FFF742FA5D
:1012D00007F10807BD4680BD80B582B000AF024669
:1012E0000B46FA71BB714EF20013CEF200034FF4BD
:1012F00000021A604EF20013CEF200034FF080722B
:101300001A604EF20013CEF200034FF001021A6091
:101310004EF20013CEF200034FF002021A6048F2C0
:101320004443C1F6FF734FF000021A70BB79002BE3
:1013300002D0012B08D00FE046F20903C4F20003EB
:101340004FF002021A700EE046F20903C4F20003E5
:101350004FF003021A7006E046F20903C4F20003DC
:101360004FF003021A7048F24E43C1F6FF73FA7948
:101370001A7048F25843C1F6FF734FF000021A701A
:1013800048F24543C1F6FF734FF000021A7048F26D
:101390005143C1F6FF734FF000021A7048F24F43F9
:1013A000C1F6FF734FF000021A7048F26D43C1F6A8
:1013B000FF734FF000021A7048F24643C1F6FF7304
:1013C0004FF000021A7046F22803C4F200034FF0F7
:1013D00003021A7046F20803C4F200036FF07F02A2
:1013E0001A704FF0010002F003FB46F21203C4F240
:1013F00000034FF004021A7007F10807BD4680BDD4
:1014000080B400AF48F24443C1F6FF734FF00002CE
:101410001A7048F25843C1F6FF734FF000021A7079
:1014200048F24543C1F6FF734FF000021A7048F2CC
:101430005143C1F6FF734FF000021A7048F24F4358
:10144000C1F6FF734FF000021A7048F26D43C1F607
:10145000FF734FF000021A7048F24643C1F6FF7363
:101460004FF000021A7046F22803C4F200034FF056
:1014700003021A7046F20803C4F200036FF07F0201
:101480001A70BD4680BC704780B400AF48F2584324
:10149000C1F6FF731B78DBB21846BD4680BC7047AF
:1014A00080B483B000AF0346FB71F97948F2704213
:1014B000C1F6FF720B464FEA43030B444FEA830326
:1014C00013445B78DBB2184607F10C07BD4680BCBD
:1014D000704700BF80B485B000AF0346FB714FF08A
:1014E0000003FB81FB79002B24D0FB79082B21D84A
:1014F000FB7903F1FF33DBB24FEA03137B737A7B93
:1015000046F20C03C4F2000313441B78DBB203F071
:1015100007034FEA03239AB2797B46F20D03C4F224
:1015200000030B441B78DBB242EA03039BB2A3F136
:101530000203FB81FB89184607F11407BD4680BCF6
:10154000704700BF80B489B000AFB960134602464F
:10155000FA73FB80FB7B002B00F09A80FB7B082B4F
:1015600000F29680FB7B03F1FF33DBB24FEA0313FB
:10157000FB75FA7D46F28803C4F200031344BB6195
:10158000F888F97B48F27042C1F6FF720B464FEAC9
:1015900043030B444FEA8303134403F106031B8800
:1015A0009BB2C3F50073984212D9F97B48F270429E
:1015B000C1F6FF720B464FEA43030B444FEA830325
:1015C000134403F106031B889BB2C3F50073FB8031
:1015D000FA7D46F20C03C4F200031344FA884FEA82
:1015E000122292B25FFA82FCF87B48F27041C1F697
:1015F000FF7102464FEA420202444FEA82020A4465
:10160000D278D2B24CEA0202D2B21A70FA7D46F215
:101610000D03C4F200031344FA88D2B21A70BB68F7
:10162000002B11D04FF00003FB8309E0BB69F98B5D
:10163000BA680A4412781A70FB8B03F10103FB832A
:10164000FA8BFB889A42F1D3F97B48F27042C1F6DB
:10165000FF720B464FEA43030B444FEA83031344E4
:101660004FF000025A70FA7D46F20E03C4F20003F6
:101670001344F87B48F27041C1F6FF7102464FEA0D
:10168000420202444FEA82020A445279D2B21A70EC
:1016900007F12407BD4680BC704700BF80B588B005
:1016A00000AFB96013460246FA73FB80FB7B002B48
:1016B00037D0FB7B082B34D8BB68002B31D0FB7BA9
:1016C00003F1FF33DBB24FEA0313FB75FA7D46F2F9
:1016D0008803C4F200031344BB61FB7B1846FFF789
:1016E000F9FE0346FB83FA88FB8B9A4201D9FB8BF8
:1016F000FB804FF00003BB830AE0BA8BBB68134446
:10170000BA691278D2B21A70BB8B03F10103BB83A2
:10171000BA8BFB889A42F0D3FB7B184600F00AF89C
:1017200002E04FF00003FB80FB88184607F120071A
:10173000BD4680BD80B485B000AF0346FB71FB7928
:10174000002B2DD0FB79082B2AD8FB7903F1FF332E
:10175000DBB24FEA0313FB73F97948F27042C1F62A
:10176000FF720B464FEA43030B444FEA83031344D3
:101770004FF000025A70FA7B46F20E03C4F20003E7
:101780001344F87948F27041C1F6FF7102464FEAFE
:10179000420202444FEA82020A445279D2B21A70DB
:1017A00007F11407BD4680BC704700BF80B582B00A
:1017B00000AF46F22803C4F200031B78BB71BB796B
:1017C00003F01003002B00F08E804FF00103FB713B
:1017D000BB795BB2002B17DABB7903F00F03012B47
:1017E00003D04FF00003FB7123E000F081F848F2D2
:1017F0004D43C1F6FF731B78DBB25BB2002B17DAE7
:101800004FF00003FB7114E0BB7903F04003002BA1
:1018100002D000F0BFF80CE0BB7903F02003002BEE
:1018200002D000F0DDF804E04FF00003FB7100E0AF
:1018300000BFFB79002B56D046F22803C4F2000308
:101840001B78BB71BB795BB2002B4CDB48F2504379
:10185000C1F6FF731B78DAB248F26C43C1F6FF732E
:101860001B78DBB242EA0303BB7146F22903C4F2E0
:101870000003BA791A7046F22903C4F200031B78F8
:10188000DBB2BA799A422ED148F24D43C1F6FF73CA
:101890001B78FB7146F22803C4F200031B78DBB20D
:1018A00023F07F03BB71BB79002B13D146F22803D1
:1018B000C4F2000348F24D42C1F6FF721278D2B270
:1018C0001A7046F22803C4F200031B78DBB203F05F
:1018D0000F03FB7148F24D43C1F6FF731B78DBB277
:1018E000FA799A42D0D107F10807BD4680BD00BF02
:1018F00080B582B000AF46F22803C4F200031B7823
:10190000FB7146F22803C4F20003FA791A7046F21A
:101910002803C4F200031B78FB71FB795BB2002B38
:1019200006DA48F24D43C1F6FF73FA791A702DE0DA
:101930004FF0020000F0CEFA46F20003C4F20003BA
:101940001B78DBB203F06003202B08D0402B0BD0B8
:10195000002B0ED100F08AFB0346FB710CE002F075
:1019600057F80346FB7107E001F04AFD0346FB719F
:1019700002E04FF00003FB71FB79002B06D148F227
:101980004D43C1F6FF734FF003021A7007F10807C9
:10199000BD4680BD80B500AF48F24443C1F6FF7339
:1019A0001B78DBB2062B19D801A252F823F000BF36
:1019B000DD190000DD190000CD190000DD1900005F
:1019C000D3190000DD190000D919000000F05AF900
:1019D00004E000F011FA01E000F048FA80BD00BF19
:1019E00080B500AF48F24443C1F6FF731B78DBB209
:1019F000062B22D801A252F823F000BF3B1A0000A8
:101A00003B1A0000191A00003B1A00001F1A0000C0
:101A10003B1A0000251A000000F03AF90DE000F032
:101A200061F90AE04FF0030000F054FA48F24D4328
:101A3000C1F6FF734FF003021A7080BD80B400AF8F
:101A400048F24643C1F6FF731B78DBB21A4648F2F0
:101A50005643C1F6FF731B889BB213449AB248F2F7
:101A60005643C1F6FF731A8048F26C43C1F6FF7308
:101A70004FF000021A7034E048F26C43C1F6FF7375
:101A80001B78DBB203F1804303F5C04348F26042A8
:101A9000C1F6FF7252681178C9B2197002F10102E1
:101AA00048F26043C1F6FF735A6048F26C43C1F6D6
:101AB000FF731B78DBB203F10103DAB248F26C4327
:101AC000C1F6FF731A7048F26043C1F6FF731B88BA
:101AD0009BB203F1FF339AB248F26043C1F6FF7341
:101AE0001A8048F26043C1F6FF731B889BB2002B3B
:101AF00007D048F26C43C1F6FF731B78DBB2072BAB
:101B0000BAD948F26C43C1F6FF731B78DBB2002BE5
:101B100007D148F24643C1F6FF731B78DBB2082BAE
:101B20001ED148F25043C1F6FF731B78DAB26FF052
:101B30007F0382EA0303DAB248F25043C1F6FF732F
:101B40001A7048F24D43C1F6FF734FF00F021A703E
:101B500048F24443C1F6FF734FF002021A700DE0E1
:101B600048F24D43C1F6FF734FF002021A7048F27B
:101B70004443C1F6FF734FF002021A7048F26C43FF
:101B8000C1F6FF731B78DAB248F24643C1F6FF7321
:101B90001A70BD4680BC704780B582B000AF48F275
:101BA0006043C1F6FF731B889BB2002B02D100F08B
:101BB0003DF833E048F24443C1F6FF734FF00202B0
:101BC0001A7048F25043C1F6FF734FF000021A70CA
:101BD00000F0ACF946F20703C4F200031B78DBB255
:101BE0004FEA03239AB246F20603C4F200031B78BD
:101BF000DBB242EA03039BB2FB8048F26043C1F6CA
:101C0000FF731B889BB2FA889A4205D248F2604360
:101C1000C1F6FF73FA881A80FFF710FF4FF0010337
:101C2000184607F10807BD4680BD00BF80B400AF6D
:101C300048F24443C1F6FF734FF002021A7048F2B3
:101C40005043C1F6FF736FF07F021A7048F24D43A4
:101C5000C1F6FF734FF00F021A7048F24643C1F607
:101C6000FF734FF000021A7048F26C43C1F6FF7325
:101C70004FF000021A704FF001031846BD4680BCB9
:101C8000704700BF80B500AFFFF7D8FE80BD00BF32
:101C900080B500AF48F24643C1F6FF731B78DBB254
:101CA0001A4648F25643C1F6FF731B889BB2134491
:101CB0009AB248F25643C1F6FF731A8048F2444381
:101CC000C1F6FF734FF000021A704FF0010000F0F0
:101CD00001F948F24D43C1F6FF734FF003021A7049
:101CE00080BD00BF80B483B000AF46F20003C4F2F1
:101CF00000037B6046F22903C4F200031B78DBB2C9
:101D000003F00F03A3F10203DAB248F26C43C1F609
:101D1000FF731A7048F26C43C1F6FF731B78DBB295
:101D20001A4648F25643C1F6FF731B889BB2134410
:101D30009AB248F25643C1F6FF731A802FE048F278
:101D40006043C1F6FF735B687A681278D2B21A708A
:101D500003F1010248F26043C1F6FF735A607B68E9
:101D600003F101037B6048F26C43C1F6FF731B78FB
:101D7000DBB203F1FF33DAB248F26C43C1F6FF7312
:101D80001A7048F26043C1F6FF731B889BB203F1DF
:101D9000FF339AB248F26043C1F6FF731A8048F2EB
:101DA0006043C1F6FF731B889BB2002B07D048F23B
:101DB0006C43C1F6FF731B78DBB2002BBFD148F236
:101DC0005043C1F6FF731B78DAB26FF07F0382EAEB
:101DD0000303DAB248F25043C1F6FF731A7048F2B7
:101DE0004D43C1F6FF734FF00B021A7007F10C0759
:101DF000BD4680BC704700BF80B500AF48F2444389
:101E0000C1F6FF734FF000021A704FF0010000F0AE
:101E100061F848F24D43C1F6FF734FF003021A70A8
:101E200080BD00BF80B400AF48F24443C1F6FF73E9
:101E30004FF006021A7048F24D43C1F6FF734FF09F
:101E400006021A7048F25043C1F6FF736FF07F022A
:101E50001A7048F26C43C1F6FF734FF000021A701B
:101E60004FF001031846BD4680BC704780B500AFF7
:101E700048F24F43C1F6FF731B78DBB2002B16D03C
:101E800046F20803C4F2000348F24F42C1F6FF7263
:101E90001278D2B26FEA42626FEA5262D2B21A701C
:101EA00048F24F43C1F6FF734FF000021A7048F238
:101EB0004443C1F6FF734FF000021A704FF0010067
:101EC00000F008F848F24D43C1F6FF734FF00302EB
:101ED0001A7080BD80B483B000AF0346FB7148F236
:101EE0006043C1F6FF739B68002B19D048F2604332
:101EF000C1F6FF739B68FA791A7048F26043C1F625
:101F0000FF739A6848F25643C1F6FF731B889BB271
:101F1000538048F26043C1F6FF734FF000029A60AD
:101F200007F10C07BD4680BC704700BF80B400AF0E
:101F300048F25643C1F6FF734FF000021A8048F290
:101F40006043C1F6FF739B68002B0FD048F26043DB
:101F5000C1F6FF739B684FF000021A7048F26043AD
:101F6000C1F6FF739B684FF000025A80BD4680BCEB
:101F7000704700BF80B400AF46F20E03C4F2000306
:101F80001B7848F27043C1F6FF731B7BDBB203F092
:101F90000303012B0FD048F27043C1F6FF73DB7BC4
:101FA000DAB26FF07F0382EA0303DAB248F27043D9
:101FB000C1F6FF73DA7348F27043C1F6FF734FF056
:101FC00001025A7346F20B03C4F2000346F20B02FD
:101FD000C4F200021278D2B202F0FE021A70BD46BC
:101FE00080BC704780B400AF46F21E03C4F2000309
:101FF0001B7848F27043C1F6FF731B7EDBB203F01F
:102000000303012B0FD048F27043C1F6FF73DB7E50
:10201000DAB26FF07F0382EA0303DAB248F2704368
:10202000C1F6FF73DA7648F27043C1F6FF734FF0E2
:1020300001025A7646F20B03C4F2000346F20B0289
:10204000C4F200021278D2B202F0FD021A70BD464C
:1020500080BC704780B400AFBD4680BC704700BFF5
:1020600080B500AFFFF7CCF980BD00BF80B584B06C
:1020700000AF4FF00003FB704FF000037B6048F2AD
:102080006043C1F6FF734FF000021A8046F200036E
:10209000C4F200031B78DBB25BB2002B80F26781D5
:1020A00046F20103C4F200031B78DBB20A2B00F2F4
:1020B000B18201A252F823F033220000152600005D
:1020C0001526000015260000152600001526000024
:1020D000E520000015260000092300001526000059
:1020E0003523000046F20303C4F200031B78DBB281
:1020F000012B17D100F08AFF0346FB60FB685B6889
:102100001A4648F26043C1F6FF735A6048F26043D2
:10211000C1F6FF734FF012021A80FFF73DFD034630
:10212000FB7086E246F20303C4F200031B78DBB2C5
:10213000022B36D146F20203C4F200031B78DBB255
:10214000184600F04DFF0346FB60FB685B681A46CB
:1021500048F26043C1F6FF735A6048F26043C1F62B
:10216000FF735B6803F103031B78DBB24FEA0323C1
:102170009AB248F26043C1F6FF735B6803F1020351
:102180001B78DBB242EA03039BB27B8148F26043D7
:10219000C1F6FF737A891A80FFF7FEFC0346FB70D5
:1021A00047E246F20303C4F200031B78DBB2032BC1
:1021B0003AD14FF000037B7243F6D453C0F20003D0
:1021C0007B6009E07B681B78DBB27A6813447B6034
:1021D0007B7A03F101037B7246F20203C4F200032F
:1021E0001B78DBB27A7A9A4204D27B681B78DBB226
:1021F000002BE7D17B681B78DBB2002B00F00C8250
:102200007B681B78DBB21A4648F26043C1F6FF7365
:102210001A8048F26043C1F6FF737A685A60FFF78C
:10222000BBFC0346FB7004E201F0F2FB0346FB70CB
:10223000FFE146F20003C4F200031B78DBB203F0B7
:102240000303002B39D0022B40F0E88148F26043B1
:10225000C1F6FF734FF002021A8046F20403C4F283
:1022600000031B78DBB203F07F0148F27042C1F635
:10227000FF720B464FEA43030B444FEA83031344B8
:102280009B78DAB248F2E043C1F6FF731A7048F265
:10229000E043C1F6FF734FF000025A7048F260430A
:1022A000C1F6FF7348F2E042C1F6FF725A60FFF7D1
:1022B00073FC0346FB7000BFBBE148F26043C1F60C
:1022C000FF734FF002021A8048F26D43C1F6FF73AC
:1022D0001B78DAB248F2E043C1F6FF731A7048F295
:1022E000E043C1F6FF734FF000025A7048F26043BA
:1022F000C1F6FF7348F2E042C1F6FF725A60FFF781
:102300004BFC0346FB7094E148F26043C1F6FF7357
:102310004FF001021A8048F26043C1F6FF7348F2A1
:102320005842C1F6FF725A60FFF736FC0346FB7055
:1023300000BF7EE148F26043C1F6FF734FF0010237
:102340001A8046F20403C4F200031B78DBB21A467B
:1023500048F24C43C1F6FF731A4448F26043C1F699
:10236000FF735A60FFF718FC0346FB7061E146F209
:102370000103C4F200031B78DBB203F1FF330A2B25
:1023800000F2578101A252F823F000BF7F24000021
:10239000332600004D25000033260000B92300003D
:1023A000332600003326000033260000D923000026
:1023B000332600000F24000046F20203C4F200039B
:1023C0001B78DAB248F24F43C1F6FF731A70FFF779
:1023D00029FD0346FB702CE146F20203C4F2000320
:1023E0001B78DAB248F25843C1F6FF731A7048F20C
:1023F0005143C1F6FF734FF001021A704FF0010014
:1024000000F022FAFFF70EFD0346FB7011E100F029
:10241000ADFF0346002B00F0038146F20403C4F233
:1024200000031B78DAB248F24543C1F6FF731A7015
:1024300048F25143C1F6FF734FF001021A7000F0E9
:102440001FFC48F24543C1F6FF731B78DBB21A4606
:1024500048F24543C1F6FF731B78DBB2194648F2D8
:102460004C43C1F6FF735B5CD9B248F25C43C1F6E2
:10247000FF739954FFF7D6FC0346FB70D9E046F290
:102480000003C4F200031B78DBB203F00303012B4B
:102490002CD0012B0FD3022B40F0C48046F2020354
:1024A000C4F200031B78DBB2002B03D100F082FEE4
:1024B0000346FB7049E046F20203C4F200031B78B6
:1024C000DBB2012B11D148F26D43C1F6FF731B78CB
:1024D000DBB21A4602F0FD0248F26D43C1F6FF730B
:1024E0001A70FFF79FFC0346FB702EE046F20403D0
:1024F000C4F200031B78DBB2002B40F0958046F25B
:102500000403C4F200031B78DBB21A46194648F2F2
:102510005443C1F6FF735B5CDBB2194646F202031B
:10252000C4F200031B78DBB26FEA0303DBB201EAFB
:102530000303DBB2D9B248F25443C1F6FF73995496
:10254000FFF770FC0346FB7073E072E046F2000395
:10255000C4F200031B78DBB203F00303012B2BD082
:10256000012B0ED3022B64D146F20203C4F2000306
:102570001B78DBB2002B59D100F084FD0346FB70C1
:1025800057E046F20203C4F200031B78DBB2012BD2
:102590004ED148F26D43C1F6FF731B78DBB243F0B6
:1025A0000203DAB248F26D43C1F6FF731A70FFF707
:1025B00039FC0346FB703CE046F20403C4F200031E
:1025C0001B78DBB2002B34D146F20403C4F20003C3
:1025D0001B78DBB21A46194648F25443C1F6FF7322
:1025E0005B5CDBB2194646F20203C4F200031B78BF
:1025F000DBB26FEA0303DBB201EA0303DBB2D9B259
:1026000048F25443C1F6FF739954FFF70BFC03469D
:10261000FB700EE000BF0CE000BF0AE000BF08E066
:1026200000BF06E000BF04E000BF02E000BF00E022
:1026300000BFFB78184607F11007BD4680BD00BFFC
:1026400080B483B000AF4FF00103BB714FF00003C3
:10265000FB71E7E0FA7946F28003C4F20003134409
:102660004FF00C021A70B97948F27042C1F6FF724D
:102670000B464FEA43030B444FEA830313445B7951
:10268000DBB2002B24D0B97948F27042C1F6FF7258
:102690000B464FEA43030B444FEA830313441B7971
:1026A000DBB25BB2002B09DAFA7946F20E03C4F210
:1026B000000313444FF00C021A7012E0FA7946F24C
:1026C0000E03C4F2000313444FF008021A7008E02E
:1026D000FA7946F20E03C4F2000313446FF07F024E
:1026E0001A70FA7946F20C03C4F200031344B87965
:1026F00048F27041C1F6FF7102464FEA42020244BD
:102700004FEA82020A4402F10802128892B24FEAAA
:10271000122292B2D2B21A70FA7946F20D03C4F2C2
:1027200000031344B87948F27041C1F6FF710246C4
:102730004FEA420202444FEA82020A4402F10802CE
:10274000128892B2D2B21A70FA7946F28603C4F2B3
:1027500000031344B87948F27041C1F6FF71024694
:102760004FEA420202444FEA82020A4402F10602A0
:10277000128892B2D2B21A70FA7946F28703C4F282
:1027800000031344B87948F27041C1F6FF71024664
:102790004FEA420202444FEA82020A4402F1060270
:1027A000128892B24FEA122292B2D2B21A70FA7919
:1027B00046F28403C4F200031344B87948F270412E
:1027C000C1F6FF7102464FEA420202444FEA82021A
:1027D0000A4402F10602128892B2D2B21A70FA7951
:1027E00046F28503C4F200031344B87948F27041FD
:1027F000C1F6FF7102464FEA420202444FEA8202EA
:102800000A4402F10602128892B24FEA122292B2F0
:10281000D2B21A70BB7903F10103BB71FB7903F1EA
:102820001003FB71FB795BB2002BBFF613AF46F2CE
:102830000A03C4F200034FF0FF321A7007F10C07CD
:10284000BD4680BC704700BF80B588B000AF03466E
:10285000FB714FF00003FB824FF000033B7370E00D
:10286000397B48F27042C1F6FF720B464FEA4303D0
:102870000B444FEA830313444FF000021A70397B74
:1028800048F27042C1F6FF720B464FEA43030B4415
:102890004FEA830313444FF000029A70397B48F2E9
:1028A0007042C1F6FF720B464FEA43030B444FEAF6
:1028B000830313444FF000025A70397B48F2704290
:1028C000C1F6FF720B464FEA43030B444FEA830302
:1028D00013444FF00002DA70397B48F27042C1F6BF
:1028E000FF720B464FEA43030B444FEA8303134442
:1028F0004FF000025A71397B48F27042C1F6FF7204
:102900000B464FEA43030B444FEA8303134403F19E
:1029100008034FF000021A80397B48F27042C1F67A
:10292000FF720B464FEA43030B444FEA8303134401
:1029300003F108034FF000029A703B7B03F101039F
:102940003B733B7B082B8BD9FB79002B1AD04FF0C4
:102950000003BB7313E0BA7B48F24C43C1F6FF732C
:102960004FF000019954BA7B48F25C43C1F6FF7303
:102970004FF000019954BB7B03F10103BB73BB7B98
:10298000002BE8D048F25843C1F6FF731B78DBB246
:10299000002B00F0718148F25843C1F6FF731B7899
:1029A000DBB203F1FF33DBB2184600F019FB03463C
:1029B000BB61BB695B683B613B6903F107031B7843
:1029C00003F04003002B0ED048F26D43C1F6FF73B5
:1029D0001B78DBB243F00103DAB248F26D43C1F673
:1029E000FF731A700DE048F26D43C1F6FF731B7858
:1029F000DBB21A4602F0FE0248F26D43C1F6FF73E5
:102A00001A70BB6903F10803BB61BB691B783B7398
:102A10004FF00103BB73CBE0BB695B68FB614FF018
:102A200000037B73BBE0BA7BFB699B7803F07F03F9
:102A30009A4240F0AC80B97B48F27042C1F6FF7216
:102A40000B464FEA43030B444FEA8303134403F15D
:102A500008031B889AB2FB699B889A4211D2B97B02
:102A6000FB69988848F27042C1F6FF720B464FEA44
:102A700043030B444FEA8303134403F10803024664
:102A80001A80FB691B781A4648F24C43C1F6FF7363
:102A90009B5CDAB2FB695B789A4278D1FB69DB78A0
:102AA00003F00303012B14BF00230123FB73FB6915
:102AB0009B785BB2002B25DAB97B48F27042C1F6F5
:102AC000FF720B464FEA43030B444FEA8303134460
:102AD0004FF001025A70B87BFB7B002B02D04FF005
:102AE000070101E04FF00D0148F27042C1F6FF729C
:102AF00003464FEA430303444FEA830313440A4661
:102B00005A7124E0B97B48F27042C1F6FF720B465D
:102B10004FEA43030B444FEA830313444FF0000290
:102B20005A70B87BFB7B002B02D04FF0050101E00F
:102B30004FF0090148F27042C1F6FF7203464FEAB6
:102B4000430303444FEA830313440A465A71B97B93
:102B5000FB69987848F27042C1F6FF720B464FEA63
:102B600043030B444FEA8303134402461A71B97BB3
:102B7000FB69D87848F27042C1F6FF720B464FEA03
:102B800043030B444FEA8303134402461A707B7BD2
:102B900003F101037B73FB6903F10803FB617A7B9B
:102BA0003B7B9A42FFF43FAFBB7B03F10103BB7356
:102BB000BB7B082B7FF630AFBB695B68FB614FF0D6
:102BC0000003BB731CE0FB699B7803F07F01FB698A
:102BD000187848F27042C1F6FF720B464FEA430381
:102BE0000B444FEA8303134403F1080302469A702F
:102BF000BB7B03F10103BB73FB6903F10803FB61BA
:102C0000BA7B3B7B9A42DED300F014FA024648F2CC
:102C10004843C1F6FF731A604FF001033B7326E08F
:102C2000397B48F27042C1F6FF720B464FEA43030C
:102C30000B444FEA8303134403F10603FA8A1A8014
:102C4000397B48F27042C1F6FF720B464FEA4303EC
:102C50000B444FEA8303134403F108031B889AB221
:102C6000FB8A1344FB823B7B03F101033B733B7BF9
:102C7000082BD5D9FFF7E4FC07F12007BD4680BD3E
:102C800080B584B000AF48F25843C1F6FF731B789B
:102C9000DBB2002B00F09F8148F25843C1F6FF736E
:102CA0001B78DBB203F1FF33DBB2184600F098F972
:102CB0000346BB60BB6803F10803BB60BB681B78BD
:102CC000FB70BB685B68FB604FF000037B717DE1CC
:102CD000FB681B781A4648F24C43C1F6FF739B5CB5
:102CE000DAB2FB681B78194648F25C43C1F6FF7301
:102CF0005B5CDBB29A4200F06181FB681B781A468C
:102D000048F24C43C1F6FF739B5CDAB2FB685B7818
:102D10009A4240F05381FB681A7846F20403C4F2E9
:102D200000031B78DBB29A4240F04881FB689B7835
:102D300003F07F033B713B7903F1FF33DBB24FEAD2
:102D40000313FB71FB68DB7803F00303012B14BF53
:102D500000230123BB71FB689B785BB2002B25DA53
:102D6000397948F27042C1F6FF720B464FEA4303CD
:102D70000B444FEA830313444FF001025A70387931
:102D8000BB79002B02D04FF0070101E04FF00D019D
:102D900048F27042C1F6FF7203464FEA4303034410
:102DA0004FEA830313440A465A7124E0397948F202
:102DB0007042C1F6FF720B464FEA43030B444FEAE1
:102DC000830313444FF000025A703879BB79002B0B
:102DD00002D04FF0050101E04FF0090148F27042C6
:102DE000C1F6FF7203464FEA430303444FEA8303ED
:102DF00013440A465A71FA7946F20E03C4F20003EC
:102E000013444FF001021A703979FB68988848F230
:102E10007042C1F6FF720B464FEA43030B444FEA80
:102E20008303134403F1080302461A803979FB68CF
:102E3000987848F27042C1F6FF720B464FEA43039E
:102E40000B444FEA8303134402461A713979FB6835
:102E5000D87848F27042C1F6FF720B464FEA43033E
:102E60000B444FEA8303134402461A70397948F23F
:102E70007042C1F6FF720B464FEA43030B444FEA20
:102E8000830313444FF00002DA70FA7946F20C0320
:102E9000C4F200031344387948F27041C1F6FF715F
:102EA00002464FEA420202444FEA82020A4402F119
:102EB0000802128892B24FEA122292B2D2B21A706B
:102EC000FA7946F20D03C4F200031344387948F24C
:102ED0007041C1F6FF7102464FEA420202444FEAD6
:102EE00082020A4402F10802128892B2D2B21A7027
:102EF000FA7946F28603C4F200031344387948F2A3
:102F00007041C1F6FF7102464FEA420202444FEAA5
:102F100082020A4402F10602128892B2D2B21A70F8
:102F2000FA7946F28703C4F200031344387948F271
:102F30007041C1F6FF7102464FEA420202444FEA75
:102F400082020A4402F10602128892B24FEA122269
:102F500092B2D2B21A70FA7946F28403C4F2000334
:102F60001344387948F27041C1F6FF7102464FEAC6
:102F7000420202444FEA82020A4402F10602128827
:102F800092B2D2B21A70FA7946F28503C4F2000303
:102F90001344387948F27041C1F6FF7102464FEA96
:102FA000420202444FEA82020A4402F106021288F7
:102FB00092B24FEA122292B2D2B21A707B7903F126
:102FC00001037B71FB6803F10803FB607A79FB78EE
:102FD0009A42FFF47DAE07F11007BD4680BD00BFE9
:102FE00080B584B000AF0346FB7100F00FF80346D4
:102FF000FB60FB7903F101034FEAC302FB68134452
:103000005B68184607F11007BD4680BD80B400AF6D
:1030100048F24E43C1F6FF731B78DBB243F65862A9
:10302000C0F200024FEAC30313445B681846BD4672
:1030300080BC704780B582B000AF48F25843C1F6FB
:10304000FF731B78DBB203F1FF33DBB21846FFF7E7
:10305000C7FF03463B603B685B6803F104031B78D2
:10306000FB713B6803F110033B60FB794FEAC3033C
:103070003A6813443B603B685B68184607F10807F1
:10308000BD4680BD80B582B000AF4FF00003FB713C
:1030900046F20403C4F200031B78DBB203F07F03A3
:1030A0007B717B7903F1FF33DBB24FEA0313BB7112
:1030B0007B79002B77D07B79082B74D87979787954
:1030C00048F27042C1F6FF7203464FEA43030344DD
:1030D0004FEA830313449B78DBB243F00103D8B279
:1030E00048F27042C1F6FF720B464FEA43030B44AD
:1030F0004FEA8303134402469A70797948F270428A
:10310000C1F6FF720B464FEA43030B444FEA8303B9
:1031100013444FF00002DA707979787948F27042FE
:10312000C1F6FF7203464FEA430303444FEA8303A9
:1031300013445B78DBB243F00203D8B248F270422A
:10314000C1F6FF720B464FEA43030B444FEA830379
:10315000134402465A70797948F27042C1F6FF7200
:103160000B464FEA43030B444FEA830313441B7996
:10317000DBB25BB2002B09DABA7946F20E03C4F275
:10318000000313446FF072021A7008E0BA7946F235
:103190000E03C4F2000313446FF076021A70FEF7B8
:1031A00041FE0346FB71FB79184607F10807BD464F
:1031B00080BD00BF80B582B000AF4FF00003FB714F
:1031C00046F20403C4F200031B78DBB203F07F0372
:1031D0007B717B7903F1FF33DBB24FEA0313BB71E1
:1031E0007B79002B00F0BC807B79082B00F2B88043
:1031F0007879797948F27042C1F6FF720B464FEA4E
:1032000043030B444FEA830313449B78DBB21A4613
:1032100002F0FE0248F27041C1F6FF7103464FEA28
:10322000430303444FEA83030B449A70797948F2CD
:103230007042C1F6FF720B464FEA43030B444FEA5C
:10324000830313444FF00002DA70BA7946F20C039C
:10325000C4F200031344B97946F20C02C4F200022E
:103260000A441278D2B202F07F021A707879797922
:1032700048F27042C1F6FF720B464FEA43030B441B
:103280004FEA830313445B78DBB21A4602F0FD0277
:1032900048F27041C1F6FF7103464FEA430303440D
:1032A0004FEA83030B445A70797948F27042C1F6B1
:1032B000FF720B464FEA43030B444FEA8303134468
:1032C0001B79DBB25BB2002B23DA797948F27042CA
:1032D000C1F6FF720B464FEA43030B444FEA8303E8
:1032E00013445B78DBB2012B09D1BA7946F20E03A5
:1032F000C4F2000313444FF00C021A702CE0BA79A8
:1033000046F20E03C4F2000313444FF00D021A708C
:1033100022E0797948F27042C1F6FF720B464FEA1B
:1033200043030B444FEA830313445B78DBB2012B66
:1033300009D1BA7946F20E03C4F2000313444FF0E8
:1033400008021A7008E0BA7946F20E03C4F20003CC
:1033500013444FF009021A70FEF764FD0346FB7137
:10336000FB79184607F10807BD4680BD80B584B0DB
:1033700000AF4FF00103BB7146F20403C4F2000337
:103380001B78FB7148F25843C1F6FF731B78DBB220
:1033900003F1FF33DBB21846FFF722FE0346BB60A2
:1033A000BB685B6803F104031B78FB73FA79FB7B52
:1033B0009A4202D2FB79002B03D04FF00003BB717D
:1033C00018E0FA79F97948F24C43C1F6FF735B5C77
:1033D000D9B248F25C43C1F6FF739954FA7946F2C8
:1033E0000203C4F200031B78D9B248F24C43C1F681
:1033F000FF739954BB79184607F11007BD4680BD8D
:1034000080B483B000AF4FF00003FB7146F20003BD
:10341000C4F200031B78DBB25BB2002B04DA46F285
:103420000103C4F200031B78FB79184607F10C076F
:10343000BD4680BC704700BF80B485B000AF034676
:10344000FB7145F25013C4F200031B78DBB223F08A
:103450004003FB7345F25013C4F20003FA794FEABC
:103460008212D2B202F04002F97B42EA0102D2B2E9
:103470001A7007F11407BD4680BC704780B400AFD6
:1034800045F25113C4F200031B78DBB203F0400392
:103490004FEA9313DBB21846BD4680BC704700BFAD
:1034A00080B582B000AF7860396078684FF0000175
:1034B0003A6800F0B1FB07F10807BD4680BD00BFC8
:1034C00080B584B000AFF860B9607A60F868B96818
:1034D0007A6800F0D9FA07F11007BD4680BD00BF39
:1034E00080B487B000AF786039604FF00003FB60B4
:1034F0004FF00003BB602CE0BB684FEA83027B689F
:1035000013441B683B613B69FB753B6923F0FF0378
:103510003B6117E0FB684FEA43023B6813441B78AA
:103520001A463B691344FA684FEA42013A680A4472
:1035300052781A70FB6803F10103FB60FB7D03F115
:10354000FF33FB75FB7D002BE4D1BB6803F1010366
:10355000BB60BB681D2BCFD907F11C07BD4680BCE3
:10356000704700BF80B582B000AF44F28003C4F260
:1035700000034FF003021A8044F28203C4F20003F6
:103580004FF019021A7044F28403C4F200034FF0A2
:103590009B021A8044F28603C4F200034FF0190222
:1035A0001A7044F20033C4F200034FF006021A709E
:1035B00044F20023C4F200034FF052021A7044F2A6
:1035C000A163C4F2000340F20F12C4F60012127895
:1035D000D2B21A7044F22223C4F200034FF4E16223
:1035E0001A8044F22023C4F2000341F251021A80EF
:1035F0004FF00003FB714FF019033B6019E0FB79BA
:103600004FEA4303DAB244F22523C4F200031B78E5
:10361000DBB203F0010342EA0303DBB203F003036E
:10362000FB714FF4F07000F0E3F93B6803F1FF33F6
:103630003B603B68002B02D0FB79032BDFD144F2C7
:103640000403C4F200034FF480721A8044F20403AE
:10365000C4F200034FF007021A7044F20603C4F2EA
:1036600000034FF000021A7044F20803C4F2000392
:103670004FF048021A7044F20403C4F200034FF002
:1036800000021A7044F20903C4F200034FF0000272
:103690001A7044F20103C4F200034FF002021A70E0
:1036A00044F2A233C4F2000344F2A232C4F2000294
:1036B0001278D2B242F00302D2B21A7007F10807B0
:1036C000BD4680BD80B483B000AF40F2CF13C4F6D6
:1036D00000131B78FB7145F66E03C4F20003FA7900
:1036E00002F007021A7045F66F03C4F20003FA797C
:1036F0004FEA1212D2B21A7045F67603C4F20003F2
:103700004FF044021A7007F10C07BD4680BC7047A9
:1037100080B586B000AF72B644F2E863C4F200032D
:1037200044F2E862C4F200021278D2B242F004021B
:10373000D2B21A704FF00003FB702FE0FA781346F4
:103740004FEA430313444FEA43031A4643F67053C8
:10375000C0F2000313447B607B681A7859784FEA03
:10376000012141EA020299784FEA014141EA02024D
:10377000DB784FEA036343EA02031A467B68197950
:103780005B794FEA032343EA01039BB210461946D3
:10379000FFF786FEFB7803F10103FB70FB78052B36
:1037A000CCD94FF00003FB7043E0FA7813464FEAA0
:1037B000830313444FEA43031A4643F69453C0F27B
:1037C00000031344BB60BB681A7859784FEA0121A3
:1037D00041EA020299784FEA014141EA0202DB78AC
:1037E0004FEA036343EA0203FB60BB681A79597925
:1037F0004FEA012141EA020299794FEA014141EA87
:103800000202DB794FEA036343EA02033B61BB68D0
:103810001A7A5B7A4FEA032343EA0203FB82FB8AAC
:10382000F86839691A46FFF74BFEFB7803F101038C
:10383000FB70FB78002BB8D04FF0904040F278013D
:10384000C4F60001FFF74CFE45F20303C4F2010386
:1038500045F20302C4F201021278D2B242F002022F
:10386000D2B21A7045F21303C4F2010345F21302F7
:10387000C4F201021278D2B242F00202D2B21A703D
:1038800044F2A033C4F2000344F2A032C4F20002B6
:103890001278D2B242F04002D2B21A7044F2C2336D
:1038A000C4F2000344F2C232C4F200021278D2B26F
:1038B00042F01002D2B21A7045F20210C4F20000B7
:1038C00040F2B041C4F600014FF00802FFF7F8FDE6
:1038D00045F2C010C4F2000040F2B841C4F6000145
:1038E0004FF00A02FFF7ECFD45F2F010C4F20000C1
:1038F00040F2C441C4F600014FF00A02FFF7E0FDB8
:1039000045F21210C4F2000040F2D041C4F60001AA
:103910004FF00802FFF7D4FD45F22210C4F2000078
:1039200040F2D841C4F600014FF00802FFF7C8FD8D
:1039300045F23010C4F2000040F2E041C4F600014C
:103940004FF00A02FFF7BCFD45F24210C4F200003E
:1039500040F2EC41C4F600014FF00802FFF7B0FD61
:1039600045F25210C4F2000040F2F441C4F60001E6
:103970004FF00802FFF7A4FD45F26210C4F2000008
:1039800040F2FC41C4F600014FF00802FFF798FD39
:1039900044F22233C4F2000344F22232C4F20002A1
:1039A0001278D2B242F00802D2B21A7044F6000382
:1039B000C4F200034FF001021A70FFF7D3FD44F682
:1039C0000003C4F200036FF07E021A70FFF77AFE64
:1039D00044F2B030C4F2000044F2A031C4F200015D
:1039E0004FF00E02FFF76CFD07F11807BD4680BDD2
:1039F0000230800803D000BF01380046FCD1704778
:103A0000EFF3108072B6704780F31088704700BFE4
:103A100080B483B000AF4FF00003BB714FF00003E0
:103A2000FB7146F20003C4F200031B78DBB203F023
:103A30000303012B02D0022B07D01DE046F2040342
:103A4000C4F200031B78FB7116E046F20403C4F2D3
:103A500000031B78DBB203F07F0148F27042C1F62D
:103A6000FF720B464FEA43030B444FEA83031344B0
:103A700003F108039B78FB71BB79184607F10C072B
:103A8000BD4680BC704700BF032A2DE9F0070BD864
:103A90003AB1002311F803C000F803C00133934288
:103AA000F8D1BDE8F007704782180C46034603E0E2
:103AB00014F8011C03F8011C03F003061946A44680
:103AC00001330134002EF3D11CF00304634608BF18
:103AD000C1EB020C68D06542C4F1040A0CEB050787
:103AE00033464FEACA0A5CF805604FEAC408551A23
:103AF00008E057F8044F264604FA0AF449EA040499
:103B0000CC5004335C18032D26FA08F9A5F10405FE
:103B10000CEB0306EDDC002302E0F15CE154013321
:103B200019199142F9D3BCE753F8404C41F8404C85
:103B300053F83C4C41F83C4C53F8384C41F8384C65
:103B400053F8344C41F8344C53F8304C41F8304C75
:103B500053F82C4C41F82C4C53F8284C41F8284C85
:103B600053F8244C41F8244C53F8204C41F8204C95
:103B700053F81C4C41F81C4C53F8184C41F8184CA5
:103B800053F8144C41F8144C53F8104C41F8104CB5
:103B900053F80C4C41F80C4C53F8084C41F8084CC5
:103BA00053F8044C41F8044C1C460D464033403158
:103BB000BCF13F0FACF1400CB6DC21462B46541B48
:103BC0000FE051F8105C43F8105C51F80C5C43F8BE
:103BD0000C5C51F8085C43F8085C51F8045C43F84D
:103BE000045C0F2C0D469C4601F1100103F11003FB
:103BF000A4F11004E5DCCCEB0201002303E0EC5857
:103C00004CF8034004335E19032903EB0C04A1F1C3
:103C10000401F4DC7FE700BF032AC9B230B407D83F
:103C200022B10023C15401339342FBD130BC704711
:103C300000EB020C034601E003F8011C03F003044F
:103C40001A460133002CF7D14FF00133C2EB0C04BC
:103C500003FB01F31FE042F8403C42F83C3C42F8D1
:103C6000383C42F8343C42F8303C42F82C3C42F8B4
:103C7000283C42F8243C42F8203C42F81C3C42F8E4
:103C8000183C42F8143C42F8103C42F80C3C42F814
:103C9000083C42F8043C154640323F2CA4F1400455
:103CA000D9DC2A46C5EB0C0407E042F8103C42F888
:103CB0000C3C42F8083C42F8043C154610320F2CEC
:103CC000A4F11004F1DC2A46C5EB0C0501E042F832
:103CD000043C14460432032DA5F10405F7DC01E091
:103CE00004F8011B6445FBD3A0E700BF08B500F052
:103CF00017F8074800B10068064901B109680022B9
:103D0000FCF7CEFB044B0BB1AFF30080FEE700BF26
:103D1000000000000000000000000000FEE70000BE
:103D200070B543F66C6643F66C65C0F20006C0F2EF
:103D30000005761BB61006D0002455F82430013457
:103D40009847A642F9D843F66C6543F67466C0F20C
:103D50000005C0F20006761B00F082F8B61006D00F
:103D6000002455F8243001349847A642F9D870BD94
:103D700000000140800600070140000900140140D6
:103D8000000800400140000A004C014000020050C1
:103D900001402000800601403004004880000000FF
:103DA00012010002FF000008B4041000000001032B
:103DB000000100000902200001010080190904002F
:103DC0000002FF0000000705810240000107050214
:103DD000024000010403090410034300790070004D
:103DE00072006500730073001003420069007400E4
:103DF000420061006E0067001A03420075006C000B
:103E00006B0020004500780061006D0070006C00C0
:103E100065000000000081024000FF000000020277
:103E20004000FF00FF00000001000000B43D000062
:103E300002000000143E000000000000000000002E
:103E400000000000243E000001000000A03D000032
:103E500001000000283E000001000000483E000074
:103E6000F8B500BFF8BC08BC9E46704731010000A1
:103E7000D1050000F8B500BFF8BC08BC9E467047ED
:103E80001D01000000000000983E00000080FF1FA0
:083E900018010000D00300003E
:103E9800000000000000000000000000000000001A
:103EA800000000000000000000000000000000000A
:103EB80000000000000000000000000000000000FA
:103EC80000000000000000000000000000000000EA
:103ED80000000000000000000000000000000000DA
:103EE80000000000000000000000000000000000CA
:103EF80000000000000000000000000000000000BA
:103F080000000000000000000000000000000000A9
:103F18000000000000000000000000000000000099
:103F28000000000000000000000000000000000089
:103F38000000000000000000000000000000000079
:103F48000000000000000000000000000000000069
:103F58000000000000000000000000000000000059
:103F68000000000000000000000000000000000049
:103F78000000000000000000000000000000000039
:103F88000000000000000000000000000000000029
:103F98000000000000366E01C05D0000180000003F
:083FA8000000E02E0000000003
:04000003000005AD47
:00000001FF
