:1000000000800020D50300005513000055130000A8
:100010005513000055130000551300005513000040
:100020005513000055130000551300005513000030
:100030005513000055130000551300005513000020
:100040005513000055130000551300005513000010
:100050005513000055130000551300005513000000
:1000600055130000551300005513000055130000F0
:1000700055130000551300005513000055130000E0
:1000800055130000551300005513000055130000D0
:1000900055130000551300005513000055130000C0
:1000A00055130000551300005513000055130000B0
:1000B00055130000551300005513000055130000A0
:1000C00080B51448144B21E05C689968DD688C4267
:1000D0000CD0002205E0A6180832D6E9008941E9D3
:1000E00002898C460831AA42F5D101E004EB050CE7
:1000F0001C696146002204E008320026002741E91D
:1001000002670831A242F7D1143301380028DBD14D
:1001100001F008F901000000FC13000048F2181378
:10012000C1F6FF731A780AB901201870704700BF32
:1001300048F20010C1F6FF7008B503682BB140F219
:100140000003C0F2000303B1984708BD80B500AFBB
:100150004FF0030000F0C2F94FF0010000F006FA82
:100160004FF0050000F0BAF94FF0000000F0FEF982
:100170004FF0030000F0B2F980BD00BF80B500AFC2
:100180004FF0010000F0F2F94FF0030000F0A6F983
:100190004FF0010000F0B6F94FF0320000F09EF988
:1001A00080BD00BF80B500AF4FF0000000F0AAF99D
:1001B0004FF0030000F092F94FF0000000F0D6F984
:1001C0004FF0050000F08AF980BD00BF80B586B011
:1001D00000AF02460B46FA71BB71FFF7E3FF4FF029
:1001E0000703FB6011E0FA79FB6842FA03F303F0BE
:1001F00001033B613B69DBB2184600F083F9FFF76E
:10020000A5FFFB6803F1FF33FB60FB68002BEADA14
:100210004FF0000000F076F9FFF798FF4FF007036A
:10022000FB6011E0BA79FB6842FA03F303F00103C3
:100230007B617B69DBB2184600F064F9FFF786FF4B
:10024000FB6803F1FF33FB60FB68002BEADA4FF039
:10025000000000F057F9FFF779FF07F11807BD46D6
:1002600080BD00BF80B584B000AF13460246FA716E
:100270000A46BA717B71FA79BB7910461946FFF7C5
:10028000A5FF4FF00703BB6011E07A79BB6842FA23
:1002900003F303F00103FB60FB68DBB2184600F0D8
:1002A00031F9FFF753FFBB6803F1FF33BB60BB6855
:1002B000002BEADA4FF0000000F024F9FFF746FFC8
:1002C000FFF75CFF07F11007BD4680BD80B584B025
:1002D00000AF02460B46FA71BB71FA79BB79104642
:1002E0001946FFF773FFFFF749FFFFF75BFFFB7945
:1002F00003F10103FB714FF00703BB6011E0FA79D2
:10030000BB6842FA03F303F00103FB60FB68DBB256
:10031000184600F0F7F8FFF719FFBB6803F1FF3349
:10032000BB60BB68002BEADAFFF710FF4FF0070352
:10033000BB600FE000F008F90346184600F01AFC15
:100340004FF00F0000F0CAF8FFF700FFBB6803F1A1
:10035000FF33BB60BB68002BECDA4FF0010000F00C
:10036000D1F8FFF7F3FE4FF0000000F0CBF84FF0AC
:10037000040000F0B3F8FFF701FF07F11007BD46D6
:1003800080BD00BF80B500AF00F0F0F94FF00C0069
:1003900000F03EFA4FF0000000F04EF94FF001007F
:1003A00000F06CF94FF0000000F002F94FF000008F
:1003B00000F020F94FF060004FF000014FF00A020A
:1003C000FFF750FF4FF060004FF00001FFF77EFF96
:1003D000FEE700BF054B1C7844F001041C70044B81
:1003E0001A78D2B2034B1A70FFF76AFEE846004053
:1003F000FA460040BC76004080B582B000AF4EF6B1
:100400000C53CEF2000340F20042C0F2FA521A60DE
:100410004EF61453CEF200034EF61452CEF2000202
:10042000126842F400721A604FF000037B6014E01F
:100430007A687B684FEA830140F20003C0F2000350
:100440000B441B68194648F20003C1F6FF7343F8DA
:1004500022107B6803F101037B607B682F2BE7D9B7
:1004600047F2BC63C4F200031B78DAB248F21B13F4
:10047000C1F6FF731A704EF60853CEF2000348F22D
:100480000002C1F6FF721A6000F026FD07F10807AE
:10049000BD4680BD80B582B000AF78600BE048F209
:1004A0001013C1F6FF731B68184600F0F9FD7B6856
:1004B000A3F500437B607B68B3F5004FEFD848F2AB
:1004C0000813C1F6FF731B687A6802FB03F3184632
:1004D00000F0E6FD07F10807BD4680BD80B582B09B
:1004E00000AF0346FB80FA8848F20C13C1F6FF7395
:1004F0001B7803FB02F3184600F0D2FD07F1080752
:10050000BD4680BD80B485B000AF0346FB7145F2A7
:10051000C013C4F200031B78DBB223F02003FB738B
:1005200045F2C013C4F20003FA794FEA4212D2B284
:1005300002F02002F97B42EA0102D2B21A7007F1FE
:100540001407BD4680BC704780B400AF45F2C113AC
:10055000C4F200031B78DBB203F020034FEA53130D
:10056000DBB21846BD4680BC704700BF80B485B082
:1005700000AF0346FB7145F2C013C4F200031B78C1
:10058000DBB223F01003FB7345F2C013C4F2000387
:10059000FA794FEA0212D2B202F01002F97B42EA73
:1005A0000102D2B21A7007F11407BD4680BC704731
:1005B00080B485B000AF0346FB7145F23013C4F23E
:1005C00000031B78DBB223F02003FB7345F23013EA
:1005D000C4F20003FA794FEA4212D2B202F02002CA
:1005E000F97B42EA0102D2B21A7007F11407BD4644
:1005F00080BC704780B485B000AF0346FB7145F204
:100600003013C4F200031B78DBB223F04003FB730A
:1006100045F23013C4F20003FA794FEA8212D2B2E3
:1006200002F04002F97B42EA0102D2B21A7007F1ED
:100630001407BD4680BC704780B485B000AF034648
:10064000FB7145F23013C4F200031B78DBB223F0D8
:100650000803FB7345F23013C4F20003FA794FEA42
:10066000C202D2B202F00802F97B42EA0102D2B21F
:100670001A7007F11407BD4680BC704780B485B07E
:1006800000AF0346FB7145F23013C4F200031B7840
:10069000DBB223F01003FB7345F23013C4F2000306
:1006A000FA794FEA0212D2B202F01002F97B42EA62
:1006B0000102D2B21A7007F11407BD4680BC704720
:1006C00080B500AF4FF02800FFF7E4FE4FF00300C5
:1006D00000F00AFA4FF00500FFF7DCFE4FF00300D0
:1006E00000F002FA4FF00F00FFF7D4FE4FF00300C6
:1006F00000F0FAF94FF00100FFF7CCFE4FF00200D6
:1007000000F0F2F94FF00500FFF7C4FE4FF00600CD
:1007100000F07EF84FF00E0000F07AF84FF02C0059
:1007200000F076F84FF0080000F072F84FF001008A
:1007300000F06EF84FF00C0000F06AF84FF0030084
:1007400000F066F84FF00500FFF7A4FE80BD00BF83
:1007500080B500AF4FF00C0000F05AF848F21913C2
:10076000C1F6FF734FF001021A7080BD80B500AF73
:1007700048F21A13C1F6FF731B78002B08D1FFF75C
:100780009FFF48F21A13C1F6FF734FF001021A706F
:10079000FFF7DEFF80BD00BF80B584B000AF78609A
:1007A0004FF00103BB737B681B78FB730CE0FB7B92
:1007B000184600F011F8BA7B7B6813441B78FB7372
:1007C000BB7B03F10103BB73FB7B002BEFD107F174
:1007D0001007BD4680BD00BF80B584B000AF0346A2
:1007E000FB7100F031F8FB794FEA1313FB73FB7BCD
:1007F000184600F023F9FB7903F00F03FB73FB7B32
:10080000184600F01BF907F11007BD4680BD00BF78
:1008100080B584B000AF0346FB7100F015F8FB799A
:100820004FEA1313FB73FB7B184600F05DF9FB796D
:1008300003F00F03FB73FB7B184600F055F907F13B
:100840001007BD4680BD00BF80B582B000AF45F245
:100850002013C4F2000345F22012C4F20002127801
:10086000D2B202F080021A7045F22213C4F20003E1
:100870001B78DBB223F00F03FB7145F22213C4F2A5
:100880000003FA7942F00F02D2B21A7045F2231334
:10089000C4F200031B78DBB223F00F03FB7145F2B7
:1008A0002313C4F20003FA791A7045F22413C4F238
:1008B00000031B78DBB223F00F03FB7145F2241316
:1008C000C4F20003FA791A7045F22013C4F200034F
:1008D00045F22012C4F200021278D2B202F0DF0216
:1008E0001A7045F22013C4F2000345F22012C4F23C
:1008F00000021278D2B242F04002D2B21A704FF027
:100900000000FFF7EBFD45F22013C4F2000345F2AF
:100910002012C4F200021278D2B242F01002D2B217
:100920001A704FF00100FFF7D9FD45F22113C4F210
:1009300000031B78FB7145F22013C4F2000345F25B
:100940002012C4F200021278D2B202F0EF021A7042
:10095000FB7903F00803FB7145F22013C4F2000396
:1009600045F22012C4F200021278D2B242F0100214
:10097000D2B21A704FF00100FFF7B0FD45F220131C
:10098000C4F2000345F22012C4F200021278D2B27F
:1009900002F0EF021A70FB79002BB0D145F2201360
:1009A000C4F2000345F22012C4F200021278D2B25F
:1009B00002F0BF021A7045F22013C4F2000345F2A0
:1009C0002012C4F200021278D2B202F080021A7031
:1009D00045F22213C4F2000345F22212C4F20002CF
:1009E0001278D2B202F0F0021A7045F22313C4F268
:1009F00000031B78DBB223F00F03FB7145F22313D6
:100A0000C4F20003FA7942F00F02D2B21A7045F232
:100A10002413C4F200031B78DBB223F00F03FB7135
:100A200045F22413C4F20003FA7942F00F02D2B265
:100A30001A7007F10807BD4680BD00BF80B582B0BF
:100A400000AF0346FB71FFF7FFFE45F22013C4F22F
:100A5000000345F22012C4F200021278D2B242F032
:100A60002002D2B21A7045F22013C4F2000345F2FC
:100A70002012C4F200021278D2B202F0BF021A7041
:100A800045F22013C4F2000345F22012C4F2000222
:100A90001278D2B202F0F0021A7045F22013C4F2BA
:100AA000000345F22012C4F200021278D1B2FA79A2
:100AB00041EA0202D2B242F01002D2B21A704FF0F2
:100AC0000100FFF70BFD45F22013C4F2000345F2CD
:100AD0002012C4F200021278D2B202F0EF021A70B1
:100AE00007F10807BD4680BD80B582B000AF034660
:100AF000FB7145F22013C4F2000345F22012C4F248
:100B000000021278D2B202F09F021A7045F220134E
:100B1000C4F2000345F22012C4F200021278D2B2ED
:100B200002F0F0021A7045F22013C4F2000345F2FD
:100B30002012C4F200021278D1B2FA7941EA02021C
:100B4000D2B242F01002D2B21A704FF00100FFF799
:100B5000C5FC45F22013C4F2000345F22012C4F292
:100B600000021278D2B202F0EF021A7007F1080701
:100B7000BD4680BD80B586B000AF0346FB804FF018
:100B80000003BB752AE0B87DFA884CF6CD43CCF65D
:100B9000CC43A3FB02134FEAD3010B464FEA830376
:100BA0000B444FEA4303C3EB02039BB2DBB203F1F6
:100BB0003003DAB207F1180101EB000303F8102C3F
:100BC000FA884CF6CD43CCF6CC43A3FB02134FEA94
:100BD000D303FB80BB7D03F10103BB75FB88092BAD
:100BE000D1D8B87DFA884CF6CD43CCF6CC43A3FBE4
:100BF00002134FEAD3010B464FEA83030B444FEA3B
:100C00004303C3EB02039BB2DBB203F13003DAB25E
:100C100007F1180101EB000303F8102CBB7DFB75F5
:100C200012E0FA7DBB7DC3EB0203BA7D07F1180128
:100C30000A4412F8102C07F118010B4403F8082C91
:100C4000BB7D03F1FF33BB75BB7D002BE9D1FB7D81
:100C50003A7A07F118010B4403F8082CFB7D03F1E5
:100C6000010307F1180213444FF0000203F8082CA7
:100C700007F110031846FFF78FFD07F11807BD466F
:100C800080BD00BF80B582B000AF78603960786801
:100C90004FF000013A6800F0DBFA07F10807BD46A3
:100CA00080BD00BF80B584B000AFF860B9607A60E5
:100CB000F868B9687A6800F003FA07F11007BD46D2
:100CC00080BD00BF80B487B000AF786039604FF05E
:100CD0000003FB604FF00003BB602CE0BB684FEAF1
:100CE00083027B6813441B683B613B69FB753B696E
:100CF00023F0FF033B6117E0FB684FEA43023B68C8
:100D000013441B781A463B691344FA684FEA4201C0
:100D10003A680A4452781A70FB6803F10103FB60D9
:100D2000FB7D03F1FF33FB75FB7D002BE4D1BB683A
:100D300003F10103BB60BB68022BCFD907F11C078D
:100D4000BD4680BC704700BF80B582B000AF44F2A2
:100D50008003C4F200034FF000021A8044F28203C1
:100D6000C4F200034FF058021A7044F20033C4F288
:100D700000034FF002021A7044F20003C4F20003B1
:100D80004FF008021A7044F20023C4F200034FF03F
:100D900003021A7044F2A163C4F2000340F2081285
:100DA000C4F600121278D2B21A7044F22223C4F2AE
:100DB00000034FF008021A8044F22023C4F200031B
:100DC00041F251021A804FF00003FB714FF01903FA
:100DD0003B6019E0FB794FEA4303DAB244F2252382
:100DE000C4F200031B78DBB203F0010342EA030301
:100DF000DBB203F00303FB714FF4F07000F050F925
:100E00003B6803F1FF333B603B68002B02D0FB796A
:100E1000032BDFD144F20403C4F200034FF48072C9
:100E20001A8044F20403C4F200034FF007021A7060
:100E300044F20603C4F200034FF000021A7044F2B9
:100E40000803C4F200034FF048021A7044F204038E
:100E5000C4F200034FF000021A7044F20103C4F21E
:100E600000034FF002021A7044F2A233C4F20003EE
:100E700044F2A232C4F200021278D2B242F001026D
:100E8000D2B21A7007F10807BD4680BD80B483B0A6
:100E900000AF40F2CF13C4F600131B78FB7145F688
:100EA0006E03C4F20003FA7902F007021A7045F6E5
:100EB0006F03C4F20003FA794FEA1212D2B21A7029
:100EC00045F67603C4F200034FF044021A7007F1AE
:100ED0000C07BD4680BC704780B582B000AF72B6CB
:100EE00044F2E863C4F2000344F2E862C4F2000290
:100EF0001278D2B242F00402D2B21A704FF000035C
:100F0000FB702FE0FA7813464FEA430313444FEA8D
:100F100043031A4641F2A833C0F2000313447B6036
:100F20007B681A7859784FEA012141EA02029978E0
:100F30004FEA014141EA0202DB784FEA036343EAE8
:100F400002031A467B6819795B794FEA032343EA67
:100F500001039BB210461946FFF794FEFB7803F19C
:100F60000103FB70FB78072BCCD94FF0904040F287
:100F70000C01C4F60001FFF7A5FE45F20303C4F21D
:100F8000010345F20302C4F201021278D2B242F028
:100F90000202D2B21A7045F21303C4F2010345F201
:100FA0001302C4F201021278D2B242F00202D2B2AB
:100FB0001A7044F2A033C4F2000344F2A032C4F227
:100FC00000021278D2B242F04002D2B21A7044F259
:100FD000C233C4F2000344F2C232C4F200021278F7
:100FE000D2B242F01002D2B21A7045F2C010C4F26E
:100FF000000040F21C01C4F600014FF00A02FFF7A6
:1010000051FE45F22210C4F2000040F22801C4F65D
:1010100000014FF00802FFF745FE45F23010C4F220
:10102000000040F23001C4F600014FF00A02FFF761
:1010300039FE44F22233C4F2000344F22232C4F2F5
:1010400000021278D2B242F00802D2B21A7044F60C
:101050000003C4F200034FF001021A70FFF774FEA0
:1010600044F60003C4F200036FF07E021A7040F2EF
:101070000403C4F208034FF001021A70FFF706FFE1
:1010800044F2B030C4F2000044F2A031C4F20001D6
:101090004FF00E02FFF706FE07F10807BD4680BDC0
:1010A0000230800803D000BF01380046FCD17047F1
:1010B000EFF3108072B6704780F31088704700BF5E
:1010C000032A2DE9F0070BD83AB1002311F803C029
:1010D00000F803C001339342F8D1BDE8F007704730
:1010E00082180C46034603E014F8011C03F8011CA7
:1010F00003F003061946A44601330134002EF3D150
:101100001CF00304634608BFC1EB020C68D06542C3
:10111000C4F1040A0CEB050733464FEACA0A5CF82F
:1011200005604FEAC408551A08E057F8044F2646F0
:1011300004FA0AF449EA0404CC5004335C18032D81
:1011400026FA08F9A5F104050CEB0306EDDC0023F3
:1011500002E0F15CE154013319199142F9D3BCE783
:1011600053F8404C41F8404C53F83C4C41F83C4C4F
:1011700053F8384C41F8384C53F8344C41F8344C5F
:1011800053F8304C41F8304C53F82C4C41F82C4C6F
:1011900053F8284C41F8284C53F8244C41F8244C7F
:1011A00053F8204C41F8204C53F81C4C41F81C4C8F
:1011B00053F8184C41F8184C53F8144C41F8144C9F
:1011C00053F8104C41F8104C53F80C4C41F80C4CAF
:1011D00053F8084C41F8084C53F8044C41F8044CBF
:1011E0001C460D4640334031BCF13F0FACF1400C82
:1011F000B6DC21462B46541B0FE051F8105C43F837
:10120000105C51F80C5C43F80C5C51F8085C43F836
:10121000085C51F8045C43F8045C0F2C0D469C46B6
:1012200001F1100103F11003A4F11004E5DCCCEB93
:101230000201002303E0EC584CF8034004335E192C
:10124000032903EB0C04A1F10401F4DC7FE700BFE8
:10125000032AC9B230B407D822B10023C1540133E4
:101260009342FBD130BC704700EB020C034601E017
:1012700003F8011C03F003041A460133002CF7D1D4
:101280004FF00133C2EB0C0403FB01F31FE042F803
:10129000403C42F83C3C42F8383C42F8343C42F88E
:1012A000303C42F82C3C42F8283C42F8243C42F8BE
:1012B000203C42F81C3C42F8183C42F8143C42F8EE
:1012C000103C42F80C3C42F8083C42F8043C1546FD
:1012D00040323F2CA4F14004D9DC2A46C5EB0C0473
:1012E00007E042F8103C42F80C3C42F8083C42F857
:1012F000043C154610320F2CA4F11004F1DC2A46F0
:10130000C5EB0C0501E042F8043C14460432032D01
:10131000A5F10405F7DC01E004F8011B6445FBD3EB
:10132000A0E700BF08B500F017F8074800B1006853
:10133000064901B109680022FFF724F8044B0BB1FC
:10134000AFF30080FEE700BF0000000000000000D7
:1013500000000000FEE7000070B541F2E43641F203
:10136000E435C0F20006C0F20005761BB61006D0C8
:10137000002455F8243001349847A642F9D841F2A8
:10138000E43541F2EC36C0F20005C0F20006761BEF
:1013900000F022F8B61006D0002455F824300134AD
:0813A0009847A642F9D870BD80
:1013A800005100402000405100403000F051004002
:1013B8001000000001400010001401400008004027
:1013C8000140000A004C014000020050014020008A
:1013D800F8B500BFF8BC08BC9E4670473101000054
:1013E800F9030000F8B500BFF8BC08BC9E4670477A
:1013F8001D01000000000000101400000080FF1F05
:081408001801000008000000BB
:1014100000000000000000000000000000000000CC
:1014200000000000000000000000000000000000BC
:1014300000000000000000000000000000000000AC
:10144000000000000000000000000000000000009C
:10145000000000000000000000000000000000008C
:10146000000000000000000000000000000000007C
:10147000000000000000000000000000000000006C
:10148000000000000000000000000000000000005C
:10149000000000000000000000000000000000004C
:1014A000000000000000000000000000000000003C
:1014B000000000000000000000000000000000002C
:1014C000000000000000000000000000000000001C
:1014D000000000000000000000000000000000000C
:1014E00000000000000000000000000000000000FC
:1014F00000000000000000000000000000000000EC
:1015000000000000000000000000000000000000DB
:101510000000000000366E01C05D000018000000F1
:081520000000E02E00000000B5
:04000003000003D521
:00000001FF
