:100000000080002039020000254200002542000047
:100010002542000025420000254200002542000044
:100020002542000025420000254200002542000034
:100030002542000025420000254200002542000024
:100040002542000025420000254200002542000014
:100050002542000025420000254200002542000004
:1000600025420000254200002542000025420000F4
:1000700025420000254200002542000025420000E4
:1000800025420000254200002542000025420000D4
:1000900025420000254200002542000025420000C4
:1000A00025420000254200002542000025420000B4
:1000B00025420000254200002542000025420000A4
:1000C00080B51448144B21E05C689968DD688C4267
:1000D0000CD0002205E0A6180832D6E9008941E9D3
:1000E00002898C460831AA42F5D101E004EB050CE7
:1000F0001C696146002204E008320026002741E91D
:1001000002670831A242F7D1143301380028DBD14D
:1001100004F070F8010000008843000048F220134A
:10012000C1F6FF731A780AB901201870704700BF32
:1001300048F20010C1F6FF7008B503682BB140F219
:100140000003C0F2000303B1984708BD80B500AFBB
:1001500002F0E2FB4FF00C0002F0F4FB02F03AFE7A
:1001600080BD00BF80B500AF62B6FFF7EFFF4FF074
:1001700000004FF0000100F0BFF800F0BFFA0346A6
:10018000002BFAD04FF0020000F00EFC02F040FE0F
:100190004FF0020000F0BEFA0346012BF8D14FF0F9
:1001A000020000F0D1FA0346DAB248F22C13C1F68D
:1001B000FF731A7002F048FB03466FEA0303DBB2D9
:1001C000184602F01FFB48F22C13C1F6FF731B7890
:1001D0004FF0020048F23011C1F6FF711A4600F0EC
:1001E00097FB4FF0010000F095FA0346012BF8D180
:1001F00048F22C13C1F6FF731B784FF0010048F250
:100200003011C1F6FF711A4600F0D6FA4FF0010026
:1002100000F080FA0346012BF8D148F22C13C1F606
:10022000FF731B784FF0010002491A4600F0C4FA30
:10023000AEE700BF3181FF1F054B1C7844F001047D
:100240001C70044B1A78D2B2034B1A70FFF738FFB8
:10025000E8460040FA460040BC76004080B582B0D7
:1002600000AF4EF60C53CEF2000340F20042C0F253
:10027000FA521A604EF61453CEF200034EF61452A0
:10028000CEF20002126842F400721A604FF00003CE
:100290007B6014E07A687B684FEA830140F20003D8
:1002A000C0F200030B441B68194648F20003C1F674
:1002B000FF7343F822107B6803F101037B607B68C6
:1002C0002F2BE7D947F2BC63C4F200031B78DAB2E4
:1002D00048F21233C1F6FF731A704EF60853CEF28D
:1002E000000348F20002C1F6FF721A6003F02AFD13
:1002F00007F10807BD4680BD80B582B000AF024659
:100300000B46FA71BB7148F22113C1F6FF731B78DB
:10031000002B08D100F012F848F22113C1F6FF7348
:100320004FF001021A70FA79BB791046194600F0B5
:100330000DF907F10807BD4680BD00BF80B582B04A
:1003400000AF02F0BDF90346FB7144F2A533C4F2DD
:10035000000344F2A532C4F200021278D2B242F095
:100360000102D2B21A7044F2B533C4F2000344F26F
:10037000B532C4F200021278D2B242F00102D2B217
:100380001A7046F29D03C4F200034FF001021A7086
:1003900046F20903C4F200034FF002021A7046F25B
:1003A0001003C4F2000346F21002C4F200021278F5
:1003B000D2B202F07F021A704FF0000002F0B8F9DA
:1003C00044F29433C4F2000344F29432C4F20002C3
:1003D0001278D2B202F0F9021A7046F21203C4F295
:1003E000000346F21202C4F200021278D2B202F006
:1003F000DF021A7044F29433C4F2000344F29432E0
:10040000C4F200021278D2B242F00102D2B21A70E3
:100410004FF0010002F08CF94FF0280002F088F94B
:1004200045F2F813C4F2000345F2F812C4F20002D8
:100430001278D2B202F07F021A7045F2F813C4F2B9
:10044000000345F2F812C4F200021278D2B202F0B0
:10045000BF021A7044F29433C4F2000344F294329F
:10046000C4F200021278D2B242F00202D2B21A7082
:100470004FF0020002F05CF944F29433C4F200033E
:1004800044F29432C4F200021278D2B242F0040272
:10049000D2B21A7046F28403C4F200034FF0000295
:1004A0001A7046F28503C4F200034FF000021A707E
:1004B000FB79184602F008F94FF0170041F2D521F8
:1004C000C0F2000102F048F94FF017004FF00701A9
:1004D00002F072F94FF0150041F2C921C0F200019B
:1004E00002F03AF94FF015004FF0070102F064F9FD
:1004F0004FF0180040F62121C0F2000102F02CF963
:100500004FF018004FF0070102F056F94FF00000CD
:1005100041F2E911C0F2000102F01EF94FF00000B3
:100520004FF0070102F048F94FF0010041F2592164
:10053000C0F2000102F010F94FF001004FF0070186
:1005400002F03AF907F10807BD4680BD80B582B0D8
:1005500000AF02460B46FA71BB714EF20013CEF2A9
:1005600000034FF400021A604EF20013CEF20003B3
:100570004FF080721A604EF20013CEF200034FF07B
:1005800001021A604EF20013CEF200034FF0020295
:100590001A6048F27423C1F6FF734FF000021A701C
:1005A000BB79002B02D0012B08D00FE046F20903E3
:1005B000C4F200034FF002021A700EE046F2090383
:1005C000C4F200034FF003021A7006E046F209037A
:1005D000C4F200034FF003021A7048F27E23C1F602
:1005E000FF73FA791A7048F28823C1F6FF734FF04F
:1005F00000021A7048F27523C1F6FF734FF0000233
:100600001A7048F28123C1F6FF734FF000021A708E
:1006100048F27F23C1F6FF734FF000021A7048F2D0
:100620009D23C1F6FF734FF000021A7048F2762343
:10063000C1F6FF734FF000021A7046F22803C4F2AD
:1006400000034FF003021A7046F20803C4F20003DD
:100650006FF07F021A704FF0010002F029F846F2A5
:100660001203C4F200034FF004021A7007F10807E6
:10067000BD4680BD80B400AF48F27423C1F6FF735D
:100680004FF000021A7048F28823C1F6FF734FF052
:1006900000021A7048F27523C1F6FF734FF0000292
:1006A0001A7048F28123C1F6FF734FF000021A70EE
:1006B00048F27F23C1F6FF734FF000021A7048F230
:1006C0009D23C1F6FF734FF000021A7048F27623A3
:1006D000C1F6FF734FF000021A7046F22803C4F20D
:1006E00000034FF003021A7046F20803C4F200033D
:1006F0006FF07F021A70BD4680BC704780B400AFB7
:1007000048F28823C1F6FF731B78DBB21846BD465A
:1007100080BC704780B483B000AF0346FB71F979A9
:1007200048F2A022C1F6FF720B464FEA43030B4486
:100730004FEA830313445B78DBB2184607F10C07DA
:10074000BD4680BC704700BF80B485B000AF034693
:10075000FB714FF00003FB81FB79002B24D0FB7968
:10076000082B21D8FB7903F1FF33DBB24FEA0313E7
:100770007B737A7B46F20C03C4F2000313441B78AC
:10078000DBB203F007034FEA03239AB2797B46F208
:100790000D03C4F200030B441B78DBB242EA0303EF
:1007A0009BB2A3F10203FB81FB89184607F11407F2
:1007B000BD4680BC704700BF80B489B000AFB9604F
:1007C00013460246FA73FB80FB7B002B00F09A80F5
:1007D000FB7B082B00F29680FB7B03F1FF33DBB23F
:1007E0004FEA0313FB75FA7D46F28803C4F2000357
:1007F0001344BB61F888F97B48F2A022C1F6FF726E
:100800000B464FEA43030B444FEA8303134403F1BF
:1008100006031B889BB2C3F50073984212D9F97B7B
:1008200048F2A022C1F6FF720B464FEA43030B4485
:100830004FEA8303134403F106031B889BB2C3F5FD
:100840000073FB80FA7D46F20C03C4F200031344EC
:10085000FA884FEA122292B25FFA82FCF87B48F2E1
:10086000A021C1F6FF7102464FEA420202444FEA5C
:1008700082020A44D278D2B24CEA0202D2B21A7090
:10088000FA7D46F20D03C4F200031344FA88D2B293
:100890001A70BB68002B11D04FF00003FB8309E0F6
:1008A000BB69F98BBA680A4412781A70FB8B03F1A2
:1008B0000103FB83FA8BFB889A42F1D3F97B48F260
:1008C000A022C1F6FF720B464FEA43030B444FEAE6
:1008D000830313444FF000025A70FA7D46F20E0370
:1008E000C4F200031344F87B48F2A021C1F6FF7163
:1008F00002464FEA420202444FEA82020A44527917
:10090000D2B21A7007F12407BD4680BC704700BF01
:1009100080B588B000AFB96013460246FA73FB8019
:10092000FB7B002B37D0FB7B082B34D8BB68002B1C
:1009300031D0FB7B03F1FF33DBB24FEA0313FB75CE
:10094000FA7D46F28803C4F200031344BB61FB7BCB
:100950001846FFF7F9FE0346FB83FA88FB8B9A42A1
:1009600001D9FB8BFB804FF00003BB830AE0BA8BFD
:10097000BB681344BA691278D2B21A70BB8B03F108
:100980000103BB83BA8BFB889A42F0D3FB7B1846EA
:1009900000F00AF802E04FF00003FB80FB881846E5
:1009A00007F12007BD4680BD80B485B000AF034687
:1009B000FB71FB79002B2DD0FB79082B2AD8FB7912
:1009C00003F1FF33DBB24FEA0313FB73F97948F20B
:1009D000A022C1F6FF720B464FEA43030B444FEAD5
:1009E000830313444FF000025A70FA7B46F20E0361
:1009F000C4F200031344F87948F2A021C1F6FF7154
:100A000002464FEA420202444FEA82020A44527905
:100A1000D2B21A7007F11407BD4680BC704700BF00
:100A200080B582B000AF46F22803C4F200031B7801
:100A3000BB71BB7903F01003002B00F08E804FF0E8
:100A40000103FB71BB795BB2002B17DABB7903F0B2
:100A50000F03012B03D04FF00003FB7123E000F0E4
:100A600081F848F27D23C1F6FF731B78DBB25BB2DD
:100A7000002B17DA4FF00003FB7114E0BB7903F091
:100A80004003002B02D000F0BFF80CE0BB7903F06C
:100A90002003002B02D000F0DDF804E04FF000034B
:100AA000FB7100E000BFFB79002B56D046F2280313
:100AB000C4F200031B78BB71BB795BB2002B4CDB2B
:100AC00048F28023C1F6FF731B78DAB248F29C2308
:100AD000C1F6FF731B78DBB242EA0303BB7146F237
:100AE0002903C4F20003BA791A7046F22903C4F24A
:100AF00000031B78DBB2BA799A422ED148F27D23EB
:100B0000C1F6FF731B78FB7146F22803C4F20003A1
:100B10001B78DBB223F07F03BB71BB79002B13D1B1
:100B200046F22803C4F2000348F27D22C1F6FF72A8
:100B30001278D2B21A7046F22803C4F200031B786E
:100B4000DBB203F00F03FB7148F27D23C1F6FF73A4
:100B50001B78DBB2FA799A42D0D107F10807BD467B
:100B600080BD00BF80B582B000AF46F22803C4F25A
:100B700000031B78FB7146F22803C4F20003FA79E4
:100B80001A7046F22803C4F200031B78FB71FB794C
:100B90005BB2002B06DA48F27D23C1F6FF73FA79C7
:100BA0001A702DE04FF0020000F0CEFA46F200037A
:100BB000C4F200031B78DBB203F06003202B08D0E3
:100BC000402B0BD0002B0ED100F08AFB0346FB71AB
:100BD0000CE003F0A1F90346FB7107E001F04AFDC8
:100BE0000346FB7102E04FF00003FB71FB79002B21
:100BF00006D148F27D23C1F6FF734FF003021A704D
:100C000007F10807BD4680BD80B500AF48F27423E8
:100C1000C1F6FF731B78DBB2062B19D801A252F87C
:100C200023F000BF510C0000510C0000410C0000EB
:100C3000510C0000470C0000510C00004D0C00004E
:100C400000F05AF904E000F011FA01E000F048FA6F
:100C500080BD00BF80B500AF48F27423C1F6FF73BA
:100C60001B78DBB2062B22D801A252F823F000BF7A
:100C7000AF0C0000AF0C00008D0C0000AF0C0000AA
:100C8000930C0000AF0C0000990C000000F03AF942
:100C90000DE000F061F90AE04FF0030000F054FAB3
:100CA00048F27D23C1F6FF734FF003021A7080BD36
:100CB00080B400AF48F27623C1F6FF731B78DBB235
:100CC0001A4648F28623C1F6FF731B889BB2134471
:100CD0009AB248F28623C1F6FF731A8048F29C2329
:100CE000C1F6FF734FF000021A7034E048F29C2303
:100CF000C1F6FF731B78DBB203F1804303F5C043F9
:100D000048F29022C1F6FF7252681178C9B2197088
:100D100002F1010248F29023C1F6FF735A6048F2D3
:100D20009C23C1F6FF731B78DBB203F10103DAB237
:100D300048F29C23C1F6FF731A7048F29023C1F663
:100D4000FF731B889BB203F1FF339AB248F29023E2
:100D5000C1F6FF731A8048F29023C1F6FF731B8817
:100D60009BB2002B07D048F29C23C1F6FF731B787F
:100D7000DBB2072BBAD948F29C23C1F6FF731B786C
:100D8000DBB2002B07D148F27623C1F6FF731B7844
:100D9000DBB2082B1ED148F28023C1F6FF731B780B
:100DA000DAB26FF07F0382EA0303DAB248F28023FB
:100DB000C1F6FF731A7048F27D23C1F6FF734FF03E
:100DC0000F021A7048F27423C1F6FF734FF002024B
:100DD0001A700DE048F27D23C1F6FF734FF0020256
:100DE0001A7048F27423C1F6FF734FF002021A70B2
:100DF00048F29C23C1F6FF731B78DAB248F27623DF
:100E0000C1F6FF731A70BD4680BC704780B582B0D2
:100E100000AF48F29023C1F6FF731B889BB2002BF2
:100E200002D100F03DF833E048F27423C1F6FF73BD
:100E30004FF002021A7048F28023C1F6FF734FF0A0
:100E400000021A7000F0ACF946F20703C4F2000386
:100E50001B78DBB24FEA03239AB246F20603C4F2D0
:100E600000031B78DBB242EA03039BB2FB8048F22B
:100E70009023C1F6FF731B889BB2FA889A4205D271
:100E800048F29023C1F6FF73FA881A80FFF710FF2B
:100E90004FF00103184607F10807BD4680BD00BFAB
:100EA00080B400AF48F27423C1F6FF734FF0020222
:100EB0001A7048F28023C1F6FF736FF07F021A7038
:100EC00048F27D23C1F6FF734FF00F021A7048F20B
:100ED0007623C1F6FF734FF000021A7048F29C238C
:100EE000C1F6FF734FF000021A704FF0010318466D
:100EF000BD4680BC704700BF80B500AFFFF7D8FE8D
:100F000080BD00BF80B500AF48F27623C1F6FF7305
:100F10001B78DBB21A4648F28623C1F6FF731B88A2
:100F20009BB213449AB248F28623C1F6FF731A802B
:100F300048F27423C1F6FF734FF000021A704FF0AD
:100F4000010000F001F948F27D23C1F6FF734FF074
:100F500003021A7080BD00BF80B483B000AF46F2B8
:100F60000003C4F200037B6046F22903C4F20003CD
:100F70001B78DBB203F00F03A3F10203DAB248F2ED
:100F80009C23C1F6FF731A7048F29C23C1F6FF73CD
:100F90001B78DBB21A4648F28623C1F6FF731B8822
:100FA0009BB213449AB248F28623C1F6FF731A80AB
:100FB0002FE048F29023C1F6FF735B687A681278DD
:100FC000D2B21A7003F1010248F29023C1F6FF7306
:100FD0005A607B6803F101037B6048F29C23C1F6F1
:100FE000FF731B78DBB203F1FF33DAB248F29C23C4
:100FF000C1F6FF731A7048F29023C1F6FF731B8885
:101000009BB203F1FF339AB248F29023C1F6FF730B
:101010001A8048F29023C1F6FF731B889BB2002B05
:1010200007D048F29C23C1F6FF731B78DBB2002B7C
:10103000BFD148F28023C1F6FF731B78DAB26FF09C
:101040007F0382EA0303DAB248F28023C1F6FF731A
:101050001A7048F27D23C1F6FF734FF00B021A702D
:1010600007F10C07BD4680BC704700BF80B500AFDC
:1010700048F27423C1F6FF734FF000021A704FF06C
:10108000010000F061F848F27D23C1F6FF734FF0D4
:1010900003021A7080BD00BF80B400AF48F2742311
:1010A000C1F6FF734FF006021A7048F27D23C1F6B5
:1010B000FF734FF006021A7048F28023C1F6FF73E7
:1010C0006FF07F021A7048F29C23C1F6FF734FF055
:1010D00000021A704FF001031846BD4680BC7047ED
:1010E00080B500AF48F27F23C1F6FF731B78DBB2F7
:1010F000002B16D046F20803C4F2000348F27F2208
:10110000C1F6FF721278D2B26FEA42626FEA52629F
:10111000D2B21A7048F27F23C1F6FF734FF000027B
:101120001A7048F27423C1F6FF734FF000021A7070
:101130004FF0010000F008F848F27D23C1F6FF737C
:101140004FF003021A7080BD80B483B000AF034635
:10115000FB7148F29023C1F6FF739B68002B19D0F6
:1011600048F29023C1F6FF739B68FA791A7048F22F
:101170009023C1F6FF739A6848F28623C1F6FF7385
:101180001B889BB2538048F29023C1F6FF734FF047
:1011900000029A6007F10C07BD4680BC704700BF93
:1011A00080B400AF48F28623C1F6FF734FF000020F
:1011B0001A8048F29023C1F6FF739B68002B0FD072
:1011C00048F29023C1F6FF739B684FF000021A703B
:1011D00048F29023C1F6FF739B684FF000025A80DB
:1011E000BD4680BC704700BF80B400AF46F20E031E
:1011F000C4F200031B7848F2A023C1F6FF731B7BE7
:10120000DBB203F00303012B0FD048F2A023C1F699
:10121000FF73DB7BDAB26FF07F0382EA0303DAB29B
:1012200048F2A023C1F6FF73DA7348F2A023C1F697
:10123000FF734FF001025A7346F20B03C4F200032E
:1012400046F20B02C4F200021278D2B202F0FE02A1
:101250001A70BD4680BC704780B400AF46F21E03D2
:10126000C4F200031B7848F2A023C1F6FF731B7E73
:10127000DBB203F00303012B0FD048F2A023C1F629
:10128000FF73DB7EDAB26FF07F0382EA0303DAB228
:1012900048F2A023C1F6FF73DA7648F2A023C1F624
:1012A000FF734FF001025A7646F20B03C4F20003BB
:1012B00046F20B02C4F200021278D2B202F0FD0232
:1012C0001A70BD4680BC704780B400AFBD4680BC7C
:1012D000704700BF80B500AFFFF7CCF980BD00BFFD
:1012E00080B584B000AF4FF00003FB704FF00003F7
:1012F0007B6048F29023C1F6FF734FF000021A8022
:1013000046F20003C4F200031B78DBB25BB2002B91
:1013100080F2678146F20103C4F200031B78DBB25E
:101320000A2B00F2B18201A252F823F0A7140000A8
:101330008918000089180000891800008918000029
:101340008918000059130000891800007D1500005D
:1013500089180000A915000046F20303C4F2000337
:101360001B78DBB2012B17D100F08AFF0346FB602C
:10137000FB685B681A4648F29023C1F6FF735A6017
:1013800048F29023C1F6FF734FF012021A80FFF764
:101390003DFD0346FB7086E246F20303C4F2000300
:1013A0001B78DBB2022B36D146F20203C4F20003F3
:1013B0001B78DBB2184600F04DFF0346FB60FB686C
:1013C0005B681A4648F29023C1F6FF735A6048F2F0
:1013D0009023C1F6FF735B6803F103031B78DBB254
:1013E0004FEA03239AB248F29023C1F6FF735B6879
:1013F00003F102031B78DBB242EA03039BB27B8159
:1014000048F29023C1F6FF737A891A80FFF7FEFC39
:101410000346FB7047E246F20303C4F200031B7865
:10142000DBB2032B3AD14FF000037B7244F2E82386
:10143000C0F200037B6009E07B681B78DBB27A684E
:1014400013447B607B7A03F101037B7246F2020353
:10145000C4F200031B78DBB27A7A9A4204D27B682A
:101460001B78DBB2002BE7D17B681B78DBB2002B4B
:1014700000F00C827B681B78DBB21A4648F290239E
:10148000C1F6FF731A8048F29023C1F6FF737A68A1
:101490005A60FFF7BBFC0346FB7004E202F03CFD20
:1014A0000346FB70FFE146F20003C4F200031B7821
:1014B000DBB203F00303002B39D0022B40F0E881AC
:1014C00048F29023C1F6FF734FF002021A8046F2F1
:1014D0000403C4F200031B78DBB203F07F0148F27F
:1014E000A022C1F6FF720B464FEA43030B444FEABA
:1014F000830313449B78DAB248F21033C1F6FF73CA
:101500001A7048F21033C1F6FF734FF000025A70A0
:1015100048F29023C1F6FF7348F21032C1F6FF7211
:101520005A60FFF773FC0346FB7000BFBBE148F253
:101530009023C1F6FF734FF002021A8048F29D23F8
:10154000C1F6FF731B78DAB248F21033C1F6FF73AD
:101550001A7048F21033C1F6FF734FF000025A7050
:1015600048F29023C1F6FF7348F21032C1F6FF72C1
:101570005A60FFF74BFC0346FB7094E148F290235E
:10158000C1F6FF734FF001021A8048F29023C1F6B2
:10159000FF7348F28822C1F6FF725A60FFF736FCEB
:1015A0000346FB7000BF7EE148F29023C1F6FF7353
:1015B0004FF001021A8046F20403C4F200031B78C4
:1015C000DBB21A4648F27C23C1F6FF731A4448F294
:1015D0009023C1F6FF735A60FFF718FC0346FB70B7
:1015E00061E146F20103C4F200031B78DBB203F1B0
:1015F000FF330A2B00F2578101A252F823F000BFFB
:10160000F3160000A7180000C1170000A71800007B
:101610002D160000A7180000A7180000A71800004A
:101620004D160000A71800008316000046F20203C2
:10163000C4F200031B78DAB248F27F23C1F6FF73CD
:101640001A70FFF729FD0346FB702CE146F20203F6
:10165000C4F200031B78DAB248F28823C1F6FF73A4
:101660001A7048F28123C1F6FF734FF001021A701D
:101670004FF0010000F022FAFFF70EFD0346FB7069
:1016800011E100F0ADFF0346002B00F0038146F2AC
:101690000403C4F200031B78DAB248F27523C1F6E2
:1016A000FF731A7048F28123C1F6FF734FF00102F5
:1016B0001A7000F01FFC48F27523C1F6FF731B7807
:1016C000DBB21A4648F27523C1F6FF731B78DBB212
:1016D000194648F27C23C1F6FF735B5CD9B248F22D
:1016E0008C23C1F6FF739954FFF7D6FC0346FB70B9
:1016F000D9E046F20003C4F200031B78DBB203F02A
:101700000303012B2CD0012B0FD3022B40F0C480FC
:1017100046F20203C4F200031B78DBB2002B03D1B4
:1017200000F082FE0346FB7049E046F20203C4F279
:1017300000031B78DBB2012B11D148F29D23C1F6C7
:10174000FF731B78DBB21A4602F0FD0248F29D23BC
:10175000C1F6FF731A70FFF79FFC0346FB702EE083
:1017600046F20403C4F200031B78DBB2002B40F006
:10177000958046F20403C4F200031B78DBB21A46DC
:10178000194648F28423C1F6FF735B5CDBB219464D
:1017900046F20203C4F200031B78DBB26FEA0303D4
:1017A000DBB201EA0303DBB2D9B248F28423C1F60B
:1017B000FF739954FFF770FC0346FB7073E072E00F
:1017C00046F20003C4F200031B78DBB203F003030C
:1017D000012B2BD0012B0ED3022B64D146F2020336
:1017E000C4F200031B78DBB2002B59D100F084FD5A
:1017F0000346FB7057E046F20203C4F200031B7875
:10180000DBB2012B4ED148F29D23C1F6FF731B784A
:10181000DBB243F00203DAB248F29D23C1F6FF7354
:101820001A70FFF739FC0346FB703CE046F20403F4
:10183000C4F200031B78DBB2002B34D146F2040360
:10184000C4F200031B78DBB21A46194648F284231F
:10185000C1F6FF735B5CDBB2194646F20203C4F2C9
:1018600000031B78DBB26FEA0303DBB201EA030378
:10187000DBB2D9B248F28423C1F6FF739954FFF763
:101880000BFC0346FB700EE000BF0CE000BF0AE05B
:1018900000BF08E000BF06E000BF04E000BF02E0B8
:1018A00000BF00E000BFFB78184607F11007BD46F7
:1018B00080BD00BF80B483B000AF4FF00103BB71A7
:1018C0004FF00003FB71E7E0FA7946F28003C4F2BF
:1018D000000313444FF00C021A70B97948F2A022A9
:1018E000C1F6FF720B464FEA43030B444FEA8303F2
:1018F00013445B79DBB2002B24D0B97948F2A022E3
:10190000C1F6FF720B464FEA43030B444FEA8303D1
:1019100013441B79DBB25BB2002B09DAFA7946F289
:101920000E03C4F2000313444FF00C021A7012E0CD
:10193000FA7946F20E03C4F2000313444FF0080292
:101940001A7008E0FA7946F20E03C4F20003134459
:101950006FF07F021A70FA7946F20C03C4F20003AA
:101960001344B87948F2A021C1F6FF7102464FEA4C
:10197000420202444FEA82020A4402F1080212883B
:1019800092B24FEA122292B2D2B21A70FA7946F2A9
:101990000D03C4F200031344B87948F2A021C1F644
:1019A000FF7102464FEA420202444FEA82020A44B1
:1019B00002F10802128892B2D2B21A70FA7946F293
:1019C0008603C4F200031344B87948F2A021C1F69B
:1019D000FF7102464FEA420202444FEA82020A4481
:1019E00002F10602128892B2D2B21A70FA7946F265
:1019F0008703C4F200031344B87948F2A021C1F66A
:101A0000FF7102464FEA420202444FEA82020A4450
:101A100002F10602128892B24FEA122292B2D2B2B8
:101A20001A70FA7946F28403C4F200031344B879B9
:101A300048F2A021C1F6FF7102464FEA4202024479
:101A40004FEA82020A4402F10602128892B2D2B22E
:101A50001A70FA7946F28503C4F200031344B87988
:101A600048F2A021C1F6FF7102464FEA4202024449
:101A70004FEA82020A4402F10602128892B24FEA49
:101A8000122292B2D2B21A70BB7903F10103BB7178
:101A9000FB7903F11003FB71FB795BB2002BBFF6FE
:101AA00013AF46F20A03C4F200034FF0FF321A707C
:101AB00007F10C07BD4680BC704700BF80B588B0F9
:101AC00000AF0346FB714FF00003FB824FF00003B1
:101AD0003B7370E0397B48F2A022C1F6FF720B46DF
:101AE0004FEA43030B444FEA830313444FF00002D1
:101AF0001A70397B48F2A022C1F6FF720B464FEAFA
:101B000043030B444FEA830313444FF000029A70DF
:101B1000397B48F2A022C1F6FF720B464FEA43031D
:101B20000B444FEA830313444FF000025A70397B91
:101B300048F2A022C1F6FF720B464FEA43030B4462
:101B40004FEA830313444FF00002DA70397B48F206
:101B5000A022C1F6FF720B464FEA43030B444FEA43
:101B6000830313444FF000025A71397B48F2A022DC
:101B7000C1F6FF720B464FEA43030B444FEA83035F
:101B8000134403F108034FF000021A80397B48F236
:101B9000A022C1F6FF720B464FEA43030B444FEA03
:101BA0008303134403F108034FF000029A703B7B58
:101BB00003F101033B733B7B082B8BD9FB79002B93
:101BC0001AD04FF00003BB7313E0BA7B48F27C23BA
:101BD000C1F6FF734FF000019954BA7B48F28C2391
:101BE000C1F6FF734FF000019954BB7B03F1010371
:101BF000BB73BB7B002BE8D048F28823C1F6FF7390
:101C00001B78DBB2002B00F0718148F28823C1F60B
:101C1000FF731B78DBB203F1FF33DBB2184600F031
:101C200019FB0346BB61BB695B683B613B6903F120
:101C300007031B7803F04003002B0ED048F29D23CE
:101C4000C1F6FF731B78DBB243F00103DAB248F24E
:101C50009D23C1F6FF731A700DE048F29D23C1F673
:101C6000FF731B78DBB21A4602F0FE0248F29D2396
:101C7000C1F6FF731A70BB6903F10803BB61BB694E
:101C80001B783B734FF00103BB73CBE0BB695B6810
:101C9000FB614FF000037B73BBE0BA7BFB699B7871
:101CA00003F07F039A4240F0AC80B97B48F2A02257
:101CB000C1F6FF720B464FEA43030B444FEA83031E
:101CC000134403F108031B889AB2FB699B889A426C
:101CD00011D2B97BFB69988848F2A022C1F6FF7245
:101CE0000B464FEA43030B444FEA8303134403F1CB
:101CF000080302461A80FB691B781A4648F27C23C7
:101D0000C1F6FF739B5CDAB2FB695B789A4278D1CB
:101D1000FB69DB7803F00303012B14BF00230123CD
:101D2000FB73FB699B785BB2002B25DAB97B48F229
:101D3000A022C1F6FF720B464FEA43030B444FEA61
:101D4000830313444FF001025A70B87BFB7B002BD6
:101D500002D04FF0070101E04FF00D0148F2A02240
:101D6000C1F6FF7203464FEA430303444FEA83037D
:101D700013440A465A7124E0B97B48F2A022C1F606
:101D8000FF720B464FEA43030B444FEA83031344AD
:101D90004FF000025A70B87BFB7B002B02D04FF053
:101DA000050101E04FF0090148F2A022C1F6FF72DF
:101DB00003464FEA430303444FEA830313440A46AE
:101DC0005A71B97BFB69987848F2A022C1F6FF727C
:101DD0000B464FEA43030B444FEA83031344024686
:101DE0001A71B97BFB69D87848F2A022C1F6FF725C
:101DF0000B464FEA43030B444FEA83031344024666
:101E00001A707B7B03F101037B73FB6903F1080309
:101E1000FB617A7B3B7B9A42FFF43FAFBB7B03F1D4
:101E20000103BB73BB7B082B7FF630AFBB695B68DC
:101E3000FB614FF00003BB731CE0FB699B7803F070
:101E40007F01FB69187848F2A022C1F6FF720B46A9
:101E50004FEA43030B444FEA8303134403F108039F
:101E600002469A70BB7B03F10103BB73FB6903F16C
:101E70000803FB61BA7B3B7B9A42DED300F014FA85
:101E8000024648F27823C1F6FF731A604FF001034F
:101E90003B7326E0397B48F2A022C1F6FF720B4665
:101EA0004FEA43030B444FEA8303134403F1060351
:101EB000FA8A1A80397B48F2A022C1F6FF720B46DB
:101EC0004FEA43030B444FEA8303134403F108032F
:101ED0001B889AB2FB8A1344FB823B7B03F101030C
:101EE0003B733B7B082BD5D9FFF7E4FC07F12007B8
:101EF000BD4680BD80B584B000AF48F28823C1F6EE
:101F0000FF731B78DBB2002B00F09F8148F288231F
:101F1000C1F6FF731B78DBB203F1FF33DBB2184667
:101F200000F098F90346BB60BB6803F10803BB608F
:101F3000BB681B78FB70BB685B68FB604FF00003FD
:101F40007B717DE1FB681B781A4648F27C23C1F661
:101F5000FF739B5CDAB2FB681B78194648F28C234E
:101F6000C1F6FF735B5CDBB29A4200F06181FB68F3
:101F70001B781A4648F27C23C1F6FF739B5CDAB2E9
:101F8000FB685B789A4240F05381FB681A7846F20E
:101F90000403C4F200031B78DBB29A4240F048818C
:101FA000FB689B7803F07F033B713B7903F1FF33C0
:101FB000DBB24FEA0313FB71FB68DB7803F003032A
:101FC000012B14BF00230123BB71FB689B785BB21C
:101FD000002B25DA397948F2A022C1F6FF720B46B0
:101FE0004FEA43030B444FEA830313444FF00102CB
:101FF0005A703879BB79002B02D04FF0070101E00D
:102000004FF00D0148F2A022C1F6FF7203464FEADD
:10201000430303444FEA830313440A465A7124E0FE
:10202000397948F2A022C1F6FF720B464FEA43030A
:102030000B444FEA830313444FF000025A7038797F
:10204000BB79002B02D04FF0050101E04FF00901F0
:1020500048F2A022C1F6FF7203464FEA430303444D
:102060004FEA830313440A465A71FA7946F20E0383
:10207000C4F2000313444FF001021A703979FB686F
:10208000988848F2A022C1F6FF720B464FEA43033C
:102090000B444FEA8303134403F1080302461A80FA
:1020A0003979FB68987848F2A022C1F6FF720B4696
:1020B0004FEA43030B444FEA8303134402461A7169
:1020C0003979FB68D87848F2A022C1F6FF720B4636
:1020D0004FEA43030B444FEA8303134402461A704A
:1020E000397948F2A022C1F6FF720B464FEA43034A
:1020F0000B444FEA830313444FF00002DA70FA797D
:1021000046F20C03C4F200031344387948F2A021CC
:10211000C1F6FF7102464FEA420202444FEA8202D0
:102120000A4402F10802128892B24FEA122292B2D5
:10213000D2B21A70FA7946F20D03C4F200031344C6
:10214000387948F2A021C1F6FF7102464FEA4202F7
:1021500002444FEA82020A4402F10802128892B253
:10216000D2B21A70FA7946F28603C4F2000313441D
:10217000387948F2A021C1F6FF7102464FEA4202C7
:1021800002444FEA82020A4402F10602128892B225
:10219000D2B21A70FA7946F28703C4F200031344EC
:1021A000387948F2A021C1F6FF7102464FEA420297
:1021B00002444FEA82020A4402F10602128892B2F5
:1021C0004FEA122292B2D2B21A70FA7946F284031E
:1021D000C4F200031344387948F2A021C1F6FF711C
:1021E00002464FEA420202444FEA82020A4402F1E6
:1021F0000602128892B2D2B21A70FA7946F28503B8
:10220000C4F200031344387948F2A021C1F6FF71EB
:1022100002464FEA420202444FEA82020A4402F1B5
:102220000602128892B24FEA122292B2D2B21A7009
:102230007B7903F101037B71FB6803F10803FB6009
:102240007A79FB789A42FFF47DAE07F11007BD461C
:1022500080BD00BF80B584B000AF0346FB7100F0C5
:102260000FF80346FB60FB7903F101034FEAC30259
:10227000FB6813445B68184607F11007BD4680BD34
:1022800080B400AF48F27E23C1F6FF731B78DBB247
:1022900044F25C32C0F200024FEAC30313445B68AD
:1022A0001846BD4680BC704780B582B000AF48F28A
:1022B0008823C1F6FF731B78DBB203F1FF33DBB277
:1022C0001846FFF7C7FF03463B603B685B6803F1B6
:1022D00004031B78FB713B6803F110033B60FB793F
:1022E0004FEAC3033A6813443B603B685B68184697
:1022F00007F10807BD4680BD80B582B000AF4FF042
:102300000003FB7146F20403C4F200031B78DBB246
:1023100003F07F037B717B7903F1FF33DBB24FEA7C
:102320000313BB717B79002B77D07B79082B74D892
:102330007979787948F2A022C1F6FF7203464FEA14
:10234000430303444FEA830313449B78DBB243F017
:102350000103D8B248F2A022C1F6FF720B464FEA41
:1023600043030B444FEA8303134402469A7079797E
:1023700048F2A022C1F6FF720B464FEA43030B441A
:102380004FEA830313444FF00002DA7079797879C9
:1023900048F2A022C1F6FF7203464FEA430303440A
:1023A0004FEA830313445B78DBB243F00203D8B2F5
:1023B00048F2A022C1F6FF720B464FEA43030B44DA
:1023C0004FEA8303134402465A70797948F2A022F7
:1023D000C1F6FF720B464FEA43030B444FEA8303F7
:1023E00013441B79DBB25BB2002B09DABA7946F2EF
:1023F0000E03C4F2000313446FF072021A7008E077
:10240000BA7946F20E03C4F2000313446FF0760269
:102410001A70FEF741FE0346FB71FB79184607F17F
:102420000807BD4680BD00BF80B582B000AF4FF049
:102430000003FB7146F20403C4F200031B78DBB215
:1024400003F07F037B717B7903F1FF33DBB24FEA4B
:102450000313BB717B79002B00F0BC807B79082BC8
:1024600000F2B8807879797948F2A022C1F6FF723B
:102470000B464FEA43030B444FEA830313449B7814
:10248000DBB21A4602F0FE0248F2A021C1F6FF714B
:1024900003464FEA430303444FEA83030B449A7015
:1024A000797948F2A022C1F6FF720B464FEA430346
:1024B0000B444FEA830313444FF00002DA70BA79F9
:1024C00046F20C03C4F200031344B97946F20C023D
:1024D000C4F200020A441278D2B202F07F021A70EB
:1024E0007879797948F2A022C1F6FF720B464FEA5B
:1024F00043030B444FEA830313445B78DBB21A4671
:1025000002F0FD0248F2A021C1F6FF7103464FEA36
:10251000430303444FEA83030B445A70797948F22A
:10252000A022C1F6FF720B464FEA43030B444FEA69
:10253000830313441B79DBB25BB2002B23DA797976
:1025400048F2A022C1F6FF720B464FEA43030B4448
:102550004FEA830313445B78DBB2012B09D1BA79CC
:1025600046F20E03C4F2000313444FF00C021A703B
:102570002CE0BA7946F20E03C4F2000313444FF084
:102580000D021A7022E0797948F2A022C1F6FF729A
:102590000B464FEA43030B444FEA830313445B7833
:1025A000DBB2012B09D1BA7946F20E03C4F2000363
:1025B00013444FF008021A7008E0BA7946F20E038D
:1025C000C4F2000313444FF009021A70FEF764FDD1
:1025D0000346FB71FB79184607F10807BD4680BD2D
:1025E00080B584B000AF4FF00103BB7146F2040325
:1025F000C4F200031B78FB7148F28823C1F6FF7315
:102600001B78DBB203F1FF33DBB21846FFF722FE83
:102610000346BB60BB685B6803F104031B78FB7374
:10262000FA79FB7B9A4202D2FB79002B03D04FF060
:102630000003BB7118E0FA79F97948F27C23C1F6FE
:10264000FF735B5CD9B248F28C23C1F6FF739954D7
:10265000FA7946F20203C4F200031B78D9B248F2B9
:102660007C23C1F6FF739954BB79184607F1100714
:10267000BD4680BD80B483B000AF4FF00003FB7156
:1026800046F20003C4F200031B78DBB25BB2002BFE
:1026900004DA46F20103C4F200031B78FB79184602
:1026A00007F10C07BD4680BC704700BF000000006A
:1026B0000230800803D000BF01380046FCD17047CB
:1026C000EFF3108072B6704780F31088704700BF38
:1026D00080B483B000AF0346FB7101BE07F10C0765
:1026E000BD4680BC704700BF80B582B000AF786047
:1026F0000BE048F21013C1F6FF731B681846FFF792
:10270000D7FF7B68A3F500437B607B68B3F5004F80
:10271000EFD848F20813C1F6FF731B687A6802FB12
:1027200003F31846FFF7C4FF07F10807BD4680BD55
:1027300080B582B000AF0346FB80FA8848F20C13E4
:10274000C1F6FF731B7803FB02F31846FFF7B0FFD7
:1027500007F10807BD4680BD80B584B000AF0346D1
:102760003960FB714EF60853CEF200031B68FB6024
:10277000FB791F2B03D94FF00000FFF7A9FFFB796E
:1027800003F01F0303F110034FEA8302FB681344B5
:102790001B68BB60FB7903F01F0303F110034FEAD2
:1027A0008302FB6813443A681A60BB68184607F155
:1027B0001007BD4680BD00BF80B582B000AF0246A5
:1027C0000B46FA71BB71BB79072B03D94FF00000A0
:1027D000FFF77EFFFB791F2B03D94FF00000FFF7B7
:1027E00077FFFB7903F01F0303F1604303F56443B4
:1027F000BA794FEA4212D2B21A7007F10807BD4601
:1028000080BD00BF80B485B000AF0346FB7145F2C8
:102810006013C4F200031B78DBB223F00403FB73E4
:1028200045F26013C4F20003FA794FEA8202D2B291
:1028300002F00402F97B42EA0102D2B21A7007F1F7
:102840001407BD4680BC704780B400AF45F26113E9
:10285000C4F200031B78DBB203F004034FEA9303D6
:10286000DBB21846BD4680BC704700BF80B500AFE4
:102870004FF02800FFF738FF4FF0030000F078F921
:102880004FF00500FFF730FF4FF0030000F070F944
:102890004FF00F00FFF728FF4FF0030000F068F93A
:1028A0004FF00100FFF720FF4FF0020000F060F949
:1028B0004FF00500FFF718FF4FF0060000F042F858
:1028C0004FF00E0000F03EF84FF02C0000F03AF808
:1028D0004FF0080000F036F84FF0010000F032F839
:1028E0004FF00C0000F02EF84FF0030000F02AF833
:1028F0004FF00500FFF7F8FE80BD00BF80B500AFC8
:102900004FF00C0000F01EF848F22213C1F6FF73DE
:102910004FF001021A7080BD80B500AF48F223135A
:10292000C1F6FF731B78002B08D1FFF79FFF48F219
:102930002313C1F6FF734FF001021A70FFF7DEFF99
:1029400080BD00BF80B584B000AF0346FB7100F0CE
:1029500015F8FB794FEA1313FB73FB7B184600F065
:1029600007F9FB7903F00F03FB73FB7B184600F0BC
:10297000FFF807F11007BD4680BD00BF80B582B0EB
:1029800000AF45F22013C4F2000345F22012C4F256
:1029900000021278D2B202F080021A7045F22213BD
:1029A000C4F200031B78DBB223F00F03FB7145F286
:1029B0002213C4F20003FA7942F00F02D2B21A7065
:1029C00045F22313C4F200031B78DBB223F00F039C
:1029D000FB7145F22313C4F20003FA791A7045F231
:1029E0002413C4F200031B78DBB223F00F03FB7146
:1029F00045F22413C4F20003FA791A7045F2201349
:102A0000C4F2000345F22012C4F200021278D2B2DE
:102A100002F0DF021A7045F22013C4F2000345F2FF
:102A20002012C4F200021278D2B242F04002D2B2B6
:102A30001A704FF00000FFF77BFE45F22013C4F23E
:102A4000000345F22012C4F200021278D2B242F022
:102A50001002D2B21A704FF00100FFF769FE45F282
:102A60002113C4F200031B78FB7145F22013C4F25A
:102A7000000345F22012C4F200021278D2B202F032
:102A8000EF021A70FB7903F00803FB7145F2201383
:102A9000C4F2000345F22012C4F200021278D2B24E
:102AA00042F01002D2B21A704FF00100FFF740FE60
:102AB00045F22013C4F2000345F22012C4F20002D2
:102AC0001278D2B202F0EF021A70FB79002BB0D16B
:102AD00045F22013C4F2000345F22012C4F20002B2
:102AE0001278D2B202F0BF021A7045F22013C4F27B
:102AF000000345F22012C4F200021278D2B202F0B2
:102B000080021A7045F22213C4F2000345F2221229
:102B1000C4F200021278D2B202F0F0021A7045F24A
:102B20002313C4F200031B78DBB223F00F03FB7105
:102B300045F22313C4F20003FA7942F00F02D2B235
:102B40001A7045F22413C4F200031B78DBB223F0A1
:102B50000F03FB7145F22413C4F20003FA7942F02B
:102B60000F02D2B21A7007F10807BD4680BD00BF40
:102B700080B582B000AF0346FB7145F22013C4F26A
:102B8000000345F22012C4F200021278D2B202F021
:102B90009F021A7045F22013C4F2000345F220127E
:102BA000C4F200021278D2B202F0F0021A7045F2BA
:102BB0002013C4F2000345F22012C4F2000212787E
:102BC000D1B2FA7941EA0202D2B242F01002D2B294
:102BD0001A704FF00100FFF7ABFD45F22013C4F26D
:102BE000000345F22012C4F200021278D2B202F0C1
:102BF000EF021A7007F10807BD4680BD80B500AF2F
:102C00004FF0010000F018F94FF0100000F074FED2
:102C10004FF0100000F08CFE4FF0000048F6B65167
:102C20004FF400424FF00C0300F036FD80BD00BFB2
:102C300080B500AF44F2AA33C4F2000344F2AA32D2
:102C4000C4F200021278D2B242F00102D2B21A707B
:102C500044F2AA33C4F2000344F2AA32C4F20002DE
:102C60001278D2B242F01002D2B21A7044F2BA33E1
:102C7000C4F2000344F2BA32C4F200021278D2B2B3
:102C800042F00102D2B21A7044F2BA33C4F2000325
:102C900044F2BA32C4F200021278D2B242F0100208
:102CA000D2B21A7048F21413C1F6FF731B78DBB26C
:102CB000012B47D144F2F863C4F2000344F2F862F6
:102CC000C4F200021278D2B242F00202D2B21A70FA
:102CD00044F2F963C4F2000344F2F962C4F2000260
:102CE0001278D2B242F00202D2B21A7045F69103C3
:102CF000C4F2000345F69102C4F200021278D2B287
:102D000042F00302D2B21A704FF00300FFF710FD39
:102D100044F2F863C4F2000344F2F862C4F2000221
:102D20001278D2B202F0FD021A7044F2F963C4F2D2
:102D3000000344F2F962C4F200021278D2B202F047
:102D4000FD021A7045F67703C4F2000345F67702D8
:102D5000C4F200021278D2B242F00602D2B21A7065
:102D600044F2A133C4F2000344F2A132C4F20002DF
:102D70001278D2B242F00102D2B21A7044F2B133E8
:102D8000C4F2000344F2B132C4F200021278D2B2AB
:102D900042F00102D2B21A7044F2A233C4F200032C
:102DA00044F2A232C4F200021278D2B242F001021E
:102DB000D2B21A7044F2B233C4F2000344F2B23217
:102DC000C4F200021278D2B242F00102D2B21A70FA
:102DD00080BD00BF80B500AF48F22613C1F6FF7377
:102DE0001B78002B10D148F22713C1F6FF731B7814
:102DF000DBB2002B01D1FFF701FF48F22613C1F629
:102E0000FF734FF001021A70FFF712FF80BD00BF81
:102E100080B400AF44F60063C4F2000344F60062DD
:102E2000C4F200021278D2B242F00102D2B21A7099
:102E3000BD4680BC704700BF80B582B000AF03467E
:102E4000FB7148F22513C1F6FF734FF000021A70B0
:102E500048F22613C1F6FF731B78002B68D145F6A4
:102E60009603C4F200034FF007021A7045F6970369
:102E7000C4F200034FF000021A7045F69E03C4F23C
:102E800000034FF000021A7045F60733C4F2000346
:102E900045F60732C4F200021278D2B242F01802AC
:102EA000D2B21A7045F69303C4F200034FF0000249
:102EB0001A7045F68833C4F200034FF000021A700E
:102EC00045F68933C4F200034FF000021A7045F64C
:102ED0008003C4F200034FF00A021A7045F6810322
:102EE000C4F200034FF000021A7045F68203C4F2E8
:102EF00000034FF07A021A7045F68303C4F2000310
:102F00004FF000021A7045F68D03C4F200034FF033
:102F100000021A7044F60163C4F200034FF0140279
:102F20001A7044F61463C4F200034FF001021A70E1
:102F3000FB79012B40F0E88044F60063C4F2000303
:102F40004FF038021A7044F60263C4F200034FF0E7
:102F500006021A7044F60363C4F200034FF008023D
:102F60001A7044F60463C4F200034FF000021A70B2
:102F700044F60563C4F200034FF000021A7044F6F1
:102F80000663C4F200034FF01F021A7044F6086390
:102F9000C4F200034FF000021A7044F60963C4F251
:102FA00000034FF000021A7044F60A63C4F20003F3
:102FB0004FF000021A7045F68403C4F200034FF08C
:102FC00014021A7045F68503C4F200034FF009029B
:102FD0001A7045F68603C4F200034FF00A021A7015
:102FE00045F68703C4F200034FF000021A7045F65D
:102FF0008803C4F200034FF012021A7045F68903E9
:10300000C4F200034FF013021A7045F68A03C4F2AB
:1030100000034FF055021A7045F68B03C4F200030B
:103020004FF05A021A7045F68C03C4F200034FF0B9
:1030300005021A7045F68E03C4F200034FF0000239
:103040001A7045F68F03C4F200034FF000021A70A5
:1030500045F69003C4F200034FF00A021A7045F6D9
:103060009103C4F200034FF043021A704FF0440082
:1030700000F0E0FB45F69403C4F200034FF0580261
:103080001A7045F69503C4F200034FF000021A705F
:1030900045F69A03C4F200034FF005021A7045F694
:1030A0009B03C4F200034FF002021A7045F69C0322
:1030B000C4F200034FF001021A7045F69D03C4F2FA
:1030C00000034FF000021A704FF0000000F06AFC9D
:1030D00048F21813C1F6FF734FF47A621A604FF08A
:1030E0001D004FF00701FFF767FB4FF01D0043F68F
:1030F000C901C0F20001FFF72FFB4EF20013CEF220
:1031000000034FF000521A60FB79022B40F0E88078
:1031100044F60063C4F200034FF038021A7044F61C
:103120000263C4F200034FF004021A7044F6036312
:10313000C4F200034FF006021A7044F60463C4F2AE
:1031400000034FF000021A7044F60563C4F2000356
:103150004FF000021A7044F60663C4F200034FF009
:103160003F021A7044F60863C4F200034FF00002F5
:103170001A7044F60963C4F200034FF000021A709B
:1031800044F60A63C4F200034FF000021A7045F6D9
:103190008403C4F200034FF050021A7045F6850311
:1031A000C4F200034FF027021A7045F68603C4F2FA
:1031B00000034FF02C021A7045F68703C4F2000397
:1031C0004FF000021A7045F68803C4F200034FF076
:1031D00012021A7045F68903C4F200034FF013027D
:1031E0001A7045F68A03C4F200034FF055021A70B4
:1031F00045F68B03C4F200034FF05A021A7045F6ED
:103200008C03C4F200034FF005021A7045F68E03DA
:10321000C4F200034FF001021A7045F68F03C4F2A6
:1032200000034FF011021A7045F69003C4F2000338
:103230004FF019021A7045F69103C4F200036FF0C3
:1032400068021A704FF0440000F0F4FA45F6940357
:10325000C4F200034FF058021A7045F69503C4F209
:1032600000034FF000021A7045F69A03C4F20003FF
:103270004FF005021A7045F69B03C4F200034FF0AD
:1032800002021A7045F69C03C4F200034FF00102DB
:103290001A7045F69D03C4F200034FF000021A7045
:1032A0004FF0000000F07EFB48F21813C1F6FF73E8
:1032B0004FF47A421A604FF01D004FF00701FFF7FC
:1032C0007BFA4FF01D0043F6D501C0F20001FFF775
:1032D00043FA4EF20013CEF200034FF000521A6090
:1032E000FB79032B40F0E88044F60063C4F200034E
:1032F0004FF038021A7044F60263C4F200034FF034
:1033000004021A7044F60363C4F200034FF006028D
:103310001A7044F60463C4F200034FF000021A70FE
:1033200044F60563C4F200034FF000021A7044F63D
:103330000663C4F200034FF03F021A7044F60863BC
:10334000C4F200034FF000021A7044F60963C4F29D
:1033500000034FF000021A7044F60A63C4F200033F
:103360004FF000021A7045F68403C4F200034FF0D8
:1033700050021A7045F68503C4F200034FF027028D
:103380001A7045F68603C4F200034FF02C021A703F
:1033900045F68703C4F200034FF000021A7045F6A9
:1033A0008803C4F200034FF012021A7045F6890335
:1033B000C4F200034FF013021A7045F68A03C4F2F8
:1033C00000034FF055021A7045F68B03C4F2000358
:1033D0004FF05A021A7045F68C03C4F200034FF006
:1033E00005021A7045F68E03C4F200034FF0010285
:1033F0001A7045F68F03C4F200034FF011021A70E1
:1034000045F69003C4F200034FF019021A7045F616
:103410009103C4F200036FF068021A704FF0440089
:1034200000F008FA45F69403C4F200034FF0580286
:103430001A7045F69503C4F200034FF000021A70AB
:1034400045F69A03C4F200034FF005021A7045F6E0
:103450009B03C4F200034FF002021A7045F69C036E
:10346000C4F200034FF001021A7045F69D03C4F246
:1034700000034FF000021A704FF0000000F092FAC3
:1034800048F21813C1F6FF734FF47A421A604FF0F6
:103490001D004FF00701FFF78FF94FF01D0043F6B5
:1034A000E101C0F20001FFF757F94EF20013CEF22E
:1034B00000034FF000521A60FB79042B40F0E880C3
:1034C00044F60063C4F200034FF038021A7044F669
:1034D0000263C4F200034FF004021A7044F603635F
:1034E000C4F200034FF006021A7044F60463C4F2FB
:1034F00000034FF000021A7044F60563C4F20003A3
:103500004FF000021A7044F60663C4F200034FF055
:103510003F021A7044F60863C4F200034FF0000241
:103520001A7044F60963C4F200034FF000021A70E7
:1035300044F60A63C4F200034FF000021A7045F625
:103540008403C4F200034FF050021A7045F685035D
:10355000C4F200034FF027021A7045F68603C4F246
:1035600000034FF02C021A7045F68703C4F20003E3
:103570004FF000021A7045F68803C4F200034FF0C2
:1035800012021A7045F68903C4F200034FF01302C9
:103590001A7045F68A03C4F200034FF055021A7000
:1035A00045F68B03C4F200034FF05A021A7045F639
:1035B0008C03C4F200034FF005021A7045F68E0327
:1035C000C4F200034FF001021A7045F68F03C4F2F3
:1035D00000034FF011021A7045F69003C4F2000385
:1035E0004FF019021A7045F69103C4F200036FF010
:1035F00068021A704FF0440000F01CF945F694037D
:10360000C4F200034FF058021A7045F69503C4F255
:1036100000034FF000021A7045F69A03C4F200034B
:103620004FF005021A7045F69B03C4F200034FF0F9
:1036300002021A7045F69C03C4F200034FF0010227
:103640001A7045F69D03C4F200034FF000021A7091
:103650004FF0000000F0A6F948F21813C1F6FF730E
:103660004FF47A421A604FF01D004FF00701FFF748
:10367000A3F84FF01D0043F6ED01C0F20001FFF783
:103680006BF84EF20013CEF200034FF000521A60B6
:1036900007F10807BD4680BD80B487B000AFF87160
:1036A000B9807A807B70FB79A3F10403062B5DD887
:1036B00001A252F823F000BFD53600006D3700009C
:1036C0006D370000FB360000213700006D37000029
:1036D000473700007B780F2B07D940F21813C4F648
:1036E00000131B78DBB2FB7343E040F21C13C4F6FB
:1036F00000131B78DBB2FB733BE07B780F2B07D901
:1037000040F21913C4F600131B78DBB2FB7330E0F0
:1037100040F21D13C4F600131B78DBB2FB7328E0E4
:103720007B780F2B07D940F21A13C4F600131B78CD
:10373000DBB2FB731DE040F21E13C4F600131B78CE
:10374000DBB2FB7315E07B780F2B07D940F21B131C
:10375000C4F600131B78DBB2FB730AE040F21F13C0
:10376000C4F600131B78DBB2FB7302E04FF00003DA
:10377000FB73FB79002B11D0FB79012B0ED0FB7969
:10378000022B0BD0FB79032B08D0FB79052B05D03E
:10379000FB79062B02D0FB79092B03D14FF00003F4
:1037A0003B8206E097F90F309BB24FEA43139BB27E
:1037B0003B823A8ABB8813447B827B8A7A8802FBED
:1037C00003F37B617B694FEAD3337B827B780D2BDC
:1037D00012D87A8A7B786FEA030303F10F0342FA67
:1037E00003F37B8244F60E63C4F200037A7802F19D
:1037F0000102D2B21A7006E044F60E63C4F200036E
:103800004FF00F021A7044F60C63C4F200037A8A78
:10381000D2B21A7044F60D63C4F200037A8A4FEAFA
:10382000122292B2D2B21A7007F11C07BD4680BCB8
:10383000704700BF80B582B000AF0346FB7144F211
:10384000F863C4F2000344F2F862C4F20002127892
:10385000D2B242F00302D2B21A7044F2F963C4F257
:10386000000344F2F962C4F200021278D2B242F0CC
:103870000302D2B21A7045F69203C4F20003FA7939
:103880001A704FF00300FEF753FF44F2F863C4F2DE
:10389000000344F2F862C4F200021278D2B202F0DD
:1038A000FC021A7044F2F963C4F2000344F2F962B4
:1038B000C4F200021278D2B202F0FC021A7007F1D0
:1038C0000807BD4680BD00BF80B400AFBD4680BCC8
:1038D000704700BF80B400AFBD4680BC704700BFDA
:1038E00080B400AFBD4680BC704700BF80B400AF5D
:1038F000BD4680BC704700BF80B483B000AF0346B4
:10390000FB7144F20213C4F2000344F20212C4F247
:1039100000021278D1B2FA7902F0F80241EA02020A
:10392000D2B21A7007F10C07BD4680BC704700BFC9
:1039300080B483B000AF0346FB7144F28203C4F24B
:10394000000344F28202C4F200021278D1B2FA7982
:1039500002F0F80241EA0202D2B21A7007F10C0733
:10396000BD4680BC704700BF80B582B000AF4FF04D
:103970000003FB7107E0FB79184600F0B9F9FB7909
:1039800003F10103FB71FB79012BF4D948F21C13FD
:10399000C1F6FF734FF0FF321A7007F10807BD46FA
:1039A00080BD00BF80B582B000AF0346FB71FFF75A
:1039B000DBFFFB79184600F075F948F21C13C1F6DD
:1039C000FF73FA791A7007F10807BD4680BD00BF82
:1039D00080B582B000AF7860396078684FF0000140
:1039E0003A6800F09DFB07F10807BD4680BD00BFA7
:1039F00080B584B000AFF860B9607A60F868B968E3
:103A00007A6800F0C5FA07F11007BD4680BD00BF17
:103A100080B487B000AF786039604FF00003FB607E
:103A20004FF00003BB602CE0BB684FEA83027B6869
:103A300013441B683B613B69FB753B6923F0FF0343
:103A40003B6117E0FB684FEA43023B6813441B7875
:103A50001A463B691344FA684FEA42013A680A443D
:103A600052781A70FB6803F10103FB60FB7D03F1E0
:103A7000FF33FB75FB7D002BE4D1BB6803F1010331
:103A8000BB60BB68152BCFD907F11C07BD4680BCB6
:103A9000704700BF80B582B000AF44F28003C4F22B
:103AA00000034FF012021A8044F28203C4F20003B2
:103AB0004FF018021A7044F20010C4F2000040F2F5
:103AC000D801C4F600014FF00402FFF791FF44F261
:103AD0000033C4F200034FF006021A7044F20023D0
:103AE000C4F200034FF052021A7044F2A163C4F210
:103AF000000340F20F12C4F600121278D2B21A700C
:103B000044F22223C4F200034FF4E1621A8044F22B
:103B10002023C4F2000341F251021A804FF0000347
:103B2000FB714FF019033B6019E0FB794FEA430347
:103B3000DAB244F22523C4F200031B78DBB203F0AF
:103B4000010342EA0303DBB203F00303FB714FF40A
:103B5000F070FEF7ADFD3B6803F1FF333B603B685F
:103B6000002B02D0FB79032BDFD144F20403C4F213
:103B700000034FF480721A8044F20403C4F200037D
:103B80004FF007021A7044F20603C4F200034FF02C
:103B900000021A7044F20803C4F200034FF0480216
:103BA0001A7044F20403C4F200034FF000021A70CA
:103BB00044F20903C4F200034FF000021A7044F209
:103BC0000103C4F200034FF002021A7044F20B0327
:103BD000C4F200034FF004021A7044F2A233C4F29C
:103BE000000344F2A232C4F200021278D2B242F0D0
:103BF0000102D2B21A7044F2A133C4F2000344F2BB
:103C0000A132C4F200021278D2B242F00102D2B262
:103C10001A7044F2A033C4F2000344F2A032C4F29A
:103C200000021278D2B26FEA42626FEA5262D2B2F6
:103C30001A7007F10807BD4680BD00BF80B483B08D
:103C400000AF40F2CF13C4F600131B78FB7145F6AA
:103C50006E03C4F20003FA7902F007021A7045F607
:103C60006F03C4F20003FA794FEA1212D2B21A704B
:103C700045F26D13C4F200034FF020021A7045F6AE
:103C80000033C4F200034FF002021A7045F67603C7
:103C9000C4F200034FF044021A7007F10C07BD464E
:103CA00080BC704780B483B000AF0346FB71FB79E2
:103CB000012B18D8FA7944F27823C0F2000353F8A4
:103CC0002220F97944F27823C0F2000353F821301E
:103CD0001978F87944F28023C0F200031B5C41EAB2
:103CE0000303DBB2137007F10C07BD4680BC7047BD
:103CF00080B483B000AF0346FB71FB79012B1BD866
:103D0000FA7944F27823C0F2000353F82220F979BB
:103D100044F27823C0F2000353F821301978F8797F
:103D200044F28023C0F200031B5C6FEA0303DBB2A2
:103D300001EA0303DBB2137007F10C07BD4680BC38
:103D4000704700BF80B582B000AF72B644F2E8633E
:103D5000C4F2000344F2E862C4F200021278D2B264
:103D600042F00402D2B21A704FF00003FB702FE051
:103D7000FA7813464FEA430313444FEA43031A46C3
:103D800044F28423C0F2000313447B607B681A78FA
:103D900059784FEA012141EA020299784FEA01413C
:103DA00041EA0202DB784FEA036343EA02031A4660
:103DB0007B6819795B794FEA032343EA01039BB2DD
:103DC00010461946FFF704FEFB7803F10103FB7070
:103DD000FB78072BCCD94FF0904040F25801C4F645
:103DE0000001FFF715FE45F20303C4F2010345F29B
:103DF0000302C4F201021278D2B242F00202D2B23D
:103E00001A7045F21303C4F2010345F21302C4F21F
:103E100001021278D2B242F00202D2B21A7044F217
:103E2000A033C4F2000344F2A032C4F200021278BC
:103E3000D2B242F04002D2B21A7044F2C233C4F29B
:103E4000000344F2C232C4F200021278D2B242F04D
:103E50001002D2B21A7045F2F010C4F2000040F223
:103E6000B401C4F600014FF00A02FFF7C1FD45F2AC
:103E70001210C4F2000040F2C001C4F600014FF07D
:103E80000802FFF7B5FD45F22210C4F2000040F22F
:103E9000C801C4F600014FF00802FFF7A9FD45F282
:103EA0006210C4F2000040F2D001C4F600014FF0ED
:103EB0000802FFF79DFD44F22233C4F2000344F2EE
:103EC0002232C4F200021278D2B242F00802D2B218
:103ED0001A7044F60003C4F200034FF001021A7096
:103EE000FFF7D8FD44F60003C4F200036FF07E0232
:103EF0001A70FFF7A3FE44F2B030C4F2000044F29F
:103F0000A031C4F200014FF00E02FFF771FD07F17E
:103F10000807BD4680BD00BF80B483B000AF4FF03E
:103F20000003BB714FF00003FB7146F20003C4F2C3
:103F300000031B78DBB203F00303012B02D0022B3A
:103F400007D01DE046F20403C4F200031B78FB71A6
:103F500016E046F20403C4F200031B78DBB203F060
:103F60007F0148F2A022C1F6FF720B464FEA4303DD
:103F70000B444FEA8303134403F108039B78FB715E
:103F8000BB79184607F10C07BD4680BC704700BFDF
:103F9000032A2DE9F0070BD83AB1002311F803C02A
:103FA00000F803C001339342F8D1BDE8F007704731
:103FB00082180C46034603E014F8011C03F8011CA8
:103FC00003F003061946A44601330134002EF3D151
:103FD0001CF00304634608BFC1EB020C68D06542C5
:103FE000C4F1040A0CEB050733464FEACA0A5CF831
:103FF00005604FEAC408551A08E057F8044F2646F2
:1040000004FA0AF449EA0404CC5004335C18032D82
:1040100026FA08F9A5F104050CEB0306EDDC0023F4
:1040200002E0F15CE154013319199142F9D3BCE784
:1040300053F8404C41F8404C53F83C4C41F83C4C50
:1040400053F8384C41F8384C53F8344C41F8344C60
:1040500053F8304C41F8304C53F82C4C41F82C4C70
:1040600053F8284C41F8284C53F8244C41F8244C80
:1040700053F8204C41F8204C53F81C4C41F81C4C90
:1040800053F8184C41F8184C53F8144C41F8144CA0
:1040900053F8104C41F8104C53F80C4C41F80C4CB0
:1040A00053F8084C41F8084C53F8044C41F8044CC0
:1040B0001C460D4640334031BCF13F0FACF1400C83
:1040C000B6DC21462B46541B0FE051F8105C43F838
:1040D000105C51F80C5C43F80C5C51F8085C43F838
:1040E000085C51F8045C43F8045C0F2C0D469C46B8
:1040F00001F1100103F11003A4F11004E5DCCCEB95
:104100000201002303E0EC584CF8034004335E192D
:10411000032903EB0C04A1F10401F4DC7FE700BFE9
:10412000032AC9B230B407D822B10023C1540133E5
:104130009342FBD130BC704700EB020C034601E018
:1041400003F8011C03F003041A460133002CF7D1D5
:104150004FF00133C2EB0C0403FB01F31FE042F804
:10416000403C42F83C3C42F8383C42F8343C42F88F
:10417000303C42F82C3C42F8283C42F8243C42F8BF
:10418000203C42F81C3C42F8183C42F8143C42F8EF
:10419000103C42F80C3C42F8083C42F8043C1546FE
:1041A00040323F2CA4F14004D9DC2A46C5EB0C0474
:1041B00007E042F8103C42F80C3C42F8083C42F858
:1041C000043C154610320F2CA4F11004F1DC2A46F1
:1041D000C5EB0C0501E042F8043C14460432032D03
:1041E000A5F10405F7DC01E004F8011B6445FBD3ED
:1041F000A0E700BF08B500F017F8074800B1006855
:10420000064901B109680022FBF7ACFF044B0BB172
:10421000AFF30080FEE700BF0000000000000000D8
:1042200000000000FEE7000070B544F2703644F272
:104230007035C0F20006C0F20005761BB61006D03D
:10424000002455F8243001349847A642F9D844F2A6
:10425000703544F27836C0F20005C0F20006761BD5
:1042600000F080F8B61006D0002455F82430013450
:084270009847A642F9D870BD81
:10427800035B0040035B00404040000000510040E9
:104288001000305100403000C051004010000000C4
:104298000140001000140140000800400140000ADD
:1042A800004C0140000200500140200012010002B1
:1042B800FF000008B4041000000001020001000023
:1042C80009022000010100800A0904000002FF0021
:1042D80000000705810240000A0705020240000AA3
:1042E800040309041003430079007000720065009C
:1042F800730073001A03420075006C006B00200005
:104308004500780061006D0070006C0065000000D9
:10431800000081024000FF00000002024000FF0090
:10432800FF00000001000000C84200000200000079
:10433800184300000000000000000000000000001A
:104348002843000001000000B44200000100000002
:104358002C430000010000004C430000F8B500BFEA
:10436800F8BC08BC9E467047310100005D020000A1
:10437800F8B500BFF8BC08BC9E4670471D01000098
:1043880000000000A04300000080FF1F2001000083
:08439800F80100000000000024
:1043A000000000000000000000000000000000000D
:1043B00000000000000000000000000000000000FD
:1043C00000000000000000000000000000000000ED
:1043D00000000000000000000000000000000000DD
:1043E00000000000000000000000000000000000CD
:1043F00000000000000000000000000000000000BD
:1044000000000000000000000000000000000000AC
:10441000000000000000000000000000000000009C
:10442000000000000000000000000000000000008C
:10443000000000000000000000000000000000007C
:10444000000000000000000000000000000000006C
:10445000000000000000000000000000000000005C
:10446000000000000000000000000000000000004C
:10447000000000000000000000000000000000003C
:10448000000000000000000000000000000000002C
:10449000000000000000000000000000000000001C
:1044A0000000000000366E01C05D00001800000032
:1044B0000000E02E01000000A00F0000FF0000003F
:0400000300000239BE
:00000001FF
